{"abi":[{"type":"constructor","inputs":[{"name":"_initialOwner","type":"address","internalType":"address"},{"name":"_stakingContractAddress","type":"address","internalType":"address"},{"name":"_evvmMetadata","type":"tuple","internalType":"struct EvvmStructs.EvvmMetadata","components":[{"name":"EvvmName","type":"string","internalType":"string"},{"name":"EvvmID","type":"bytes","internalType":"bytes"},{"name":"principalTokenName","type":"string","internalType":"string"},{"name":"principalTokenSymbol","type":"string","internalType":"string"},{"name":"principalTokenAddress","type":"address","internalType":"address"},{"name":"totalSupply","type":"uint256","internalType":"uint256"},{"name":"eraTokens","type":"uint256","internalType":"uint256"},{"name":"reward","type":"uint256","internalType":"uint256"}]}],"stateMutability":"nonpayable"},{"type":"fallback","stateMutability":"nonpayable"},{"type":"function","name":"_addBalance","inputs":[{"name":"user","type":"address","internalType":"address"},{"name":"token","type":"address","internalType":"address"},{"name":"quantity","type":"uint256","internalType":"uint256"}],"outputs":[],"stateMutability":"nonpayable"},{"type":"function","name":"_addMateToTotalSupply","inputs":[{"name":"amount","type":"uint256","internalType":"uint256"}],"outputs":[],"stateMutability":"nonpayable"},{"type":"function","name":"_setPointStaker","inputs":[{"name":"user","type":"address","internalType":"address"},{"name":"answer","type":"bytes1","internalType":"bytes1"}],"outputs":[],"stateMutability":"nonpayable"},{"type":"function","name":"_setupNameServiceAddress","inputs":[{"name":"_nameServiceAddress","type":"address","internalType":"address"}],"outputs":[],"stateMutability":"nonpayable"},{"type":"function","name":"acceptAdmin","inputs":[],"outputs":[],"stateMutability":"nonpayable"},{"type":"function","name":"acceptImplementation","inputs":[],"outputs":[],"stateMutability":"nonpayable"},{"type":"function","name":"addTokenToWhitelist","inputs":[],"outputs":[],"stateMutability":"nonpayable"},{"type":"function","name":"caPay","inputs":[{"name":"to","type":"address","internalType":"address"},{"name":"token","type":"address","internalType":"address"},{"name":"amount","type":"uint256","internalType":"uint256"}],"outputs":[],"stateMutability":"nonpayable"},{"type":"function","name":"cancelPrepareMaxAmountToWithdraw","inputs":[],"outputs":[],"stateMutability":"nonpayable"},{"type":"function","name":"cancelPrepareTokenToBeWhitelisted","inputs":[],"outputs":[],"stateMutability":"nonpayable"},{"type":"function","name":"changePool","inputs":[{"name":"token","type":"address","internalType":"address"},{"name":"pool","type":"address","internalType":"address"}],"outputs":[],"stateMutability":"nonpayable"},{"type":"function","name":"disperseCaPay","inputs":[{"name":"toData","type":"tuple[]","internalType":"struct EvvmStructs.DisperseCaPayMetadata[]","components":[{"name":"amount","type":"uint256","internalType":"uint256"},{"name":"toAddress","type":"address","internalType":"address"}]},{"name":"token","type":"address","internalType":"address"},{"name":"amount","type":"uint256","internalType":"uint256"}],"outputs":[],"stateMutability":"nonpayable"},{"type":"function","name":"dispersePay","inputs":[{"name":"from","type":"address","internalType":"address"},{"name":"toData","type":"tuple[]","internalType":"struct EvvmStructs.DispersePayMetadata[]","components":[{"name":"amount","type":"uint256","internalType":"uint256"},{"name":"to_address","type":"address","internalType":"address"},{"name":"to_identity","type":"string","internalType":"string"}]},{"name":"token","type":"address","internalType":"address"},{"name":"amount","type":"uint256","internalType":"uint256"},{"name":"priorityFee","type":"uint256","internalType":"uint256"},{"name":"nonce","type":"uint256","internalType":"uint256"},{"name":"priorityFlag","type":"bool","internalType":"bool"},{"name":"executor","type":"address","internalType":"address"},{"name":"signature","type":"bytes","internalType":"bytes"}],"outputs":[],"stateMutability":"nonpayable"},{"type":"function","name":"fisherWithdrawal","inputs":[{"name":"user","type":"address","internalType":"address"},{"name":"addressToReceive","type":"address","internalType":"address"},{"name":"token","type":"address","internalType":"address"},{"name":"priorityFee","type":"uint256","internalType":"uint256"},{"name":"amount","type":"uint256","internalType":"uint256"},{"name":"signature","type":"bytes","internalType":"bytes"}],"outputs":[],"stateMutability":"nonpayable"},{"type":"function","name":"getBalance","inputs":[{"name":"user","type":"address","internalType":"address"},{"name":"token","type":"address","internalType":"address"}],"outputs":[{"name":"","type":"uint256","internalType":"uint256"}],"stateMutability":"view"},{"type":"function","name":"getCurrentAdmin","inputs":[],"outputs":[{"name":"","type":"address","internalType":"address"}],"stateMutability":"view"},{"type":"function","name":"getCurrentImplementation","inputs":[],"outputs":[{"name":"","type":"address","internalType":"address"}],"stateMutability":"view"},{"type":"function","name":"getEraPrincipalToken","inputs":[],"outputs":[{"name":"","type":"uint256","internalType":"uint256"}],"stateMutability":"view"},{"type":"function","name":"getEvvmMetadata","inputs":[],"outputs":[{"name":"","type":"tuple","internalType":"struct EvvmStructs.EvvmMetadata","components":[{"name":"EvvmName","type":"string","internalType":"string"},{"name":"EvvmID","type":"bytes","internalType":"bytes"},{"name":"principalTokenName","type":"string","internalType":"string"},{"name":"principalTokenSymbol","type":"string","internalType":"string"},{"name":"principalTokenAddress","type":"address","internalType":"address"},{"name":"totalSupply","type":"uint256","internalType":"uint256"},{"name":"eraTokens","type":"uint256","internalType":"uint256"},{"name":"reward","type":"uint256","internalType":"uint256"}]}],"stateMutability":"view"},{"type":"function","name":"getIfTokenIsWhitelisted","inputs":[{"name":"token","type":"address","internalType":"address"}],"outputs":[{"name":"","type":"bool","internalType":"bool"}],"stateMutability":"view"},{"type":"function","name":"getIfUsedAsyncNonce","inputs":[{"name":"user","type":"address","internalType":"address"},{"name":"nonce","type":"uint256","internalType":"uint256"}],"outputs":[{"name":"","type":"bool","internalType":"bool"}],"stateMutability":"view"},{"type":"function","name":"getMaxAmountToWithdraw","inputs":[],"outputs":[{"name":"","type":"uint256","internalType":"uint256"}],"stateMutability":"view"},{"type":"function","name":"getNameServiceAddress","inputs":[],"outputs":[{"name":"","type":"address","internalType":"address"}],"stateMutability":"view"},{"type":"function","name":"getNextCurrentSyncNonce","inputs":[{"name":"user","type":"address","internalType":"address"}],"outputs":[{"name":"","type":"uint256","internalType":"uint256"}],"stateMutability":"view"},{"type":"function","name":"getNextFisherDepositNonce","inputs":[{"name":"user","type":"address","internalType":"address"}],"outputs":[{"name":"","type":"uint256","internalType":"uint256"}],"stateMutability":"view"},{"type":"function","name":"getNextFisherWithdrawalNonce","inputs":[{"name":"user","type":"address","internalType":"address"}],"outputs":[{"name":"","type":"uint256","internalType":"uint256"}],"stateMutability":"view"},{"type":"function","name":"getPrincipalTokenTotalSupply","inputs":[],"outputs":[{"name":"","type":"uint256","internalType":"uint256"}],"stateMutability":"view"},{"type":"function","name":"getProposalAdmin","inputs":[],"outputs":[{"name":"","type":"address","internalType":"address"}],"stateMutability":"view"},{"type":"function","name":"getProposalImplementation","inputs":[],"outputs":[{"name":"","type":"address","internalType":"address"}],"stateMutability":"view"},{"type":"function","name":"getRewardAmount","inputs":[],"outputs":[{"name":"","type":"uint256","internalType":"uint256"}],"stateMutability":"view"},{"type":"function","name":"getStakingContractAddress","inputs":[],"outputs":[{"name":"","type":"address","internalType":"address"}],"stateMutability":"view"},{"type":"function","name":"getTimeToAcceptAdmin","inputs":[],"outputs":[{"name":"","type":"uint256","internalType":"uint256"}],"stateMutability":"view"},{"type":"function","name":"getTimeToAcceptImplementation","inputs":[],"outputs":[{"name":"","type":"uint256","internalType":"uint256"}],"stateMutability":"view"},{"type":"function","name":"getTokenUniswapPool","inputs":[{"name":"token","type":"address","internalType":"address"}],"outputs":[{"name":"","type":"address","internalType":"address"}],"stateMutability":"view"},{"type":"function","name":"getWhitelistTokenToBeAdded","inputs":[],"outputs":[{"name":"","type":"address","internalType":"address"}],"stateMutability":"view"},{"type":"function","name":"getWhitelistTokenToBeAddedDateToSet","inputs":[],"outputs":[{"name":"","type":"uint256","internalType":"uint256"}],"stateMutability":"view"},{"type":"function","name":"isAddressStaker","inputs":[{"name":"user","type":"address","internalType":"address"}],"outputs":[{"name":"","type":"bool","internalType":"bool"}],"stateMutability":"view"},{"type":"function","name":"payMateStaking_async","inputs":[{"name":"from","type":"address","internalType":"address"},{"name":"to_address","type":"address","internalType":"address"},{"name":"to_identity","type":"string","internalType":"string"},{"name":"token","type":"address","internalType":"address"},{"name":"amount","type":"uint256","internalType":"uint256"},{"name":"priorityFee","type":"uint256","internalType":"uint256"},{"name":"nonce","type":"uint256","internalType":"uint256"},{"name":"executor","type":"address","internalType":"address"},{"name":"signature","type":"bytes","internalType":"bytes"}],"outputs":[],"stateMutability":"nonpayable"},{"type":"function","name":"payMateStaking_sync","inputs":[{"name":"from","type":"address","internalType":"address"},{"name":"to_address","type":"address","internalType":"address"},{"name":"to_identity","type":"string","internalType":"string"},{"name":"token","type":"address","internalType":"address"},{"name":"amount","type":"uint256","internalType":"uint256"},{"name":"priorityFee","type":"uint256","internalType":"uint256"},{"name":"executor","type":"address","internalType":"address"},{"name":"signature","type":"bytes","internalType":"bytes"}],"outputs":[],"stateMutability":"nonpayable"},{"type":"function","name":"payMultiple","inputs":[{"name":"payData","type":"tuple[]","internalType":"struct EvvmStructs.PayData[]","components":[{"name":"from","type":"address","internalType":"address"},{"name":"to_address","type":"address","internalType":"address"},{"name":"to_identity","type":"string","internalType":"string"},{"name":"token","type":"address","internalType":"address"},{"name":"amount","type":"uint256","internalType":"uint256"},{"name":"priorityFee","type":"uint256","internalType":"uint256"},{"name":"nonce","type":"uint256","internalType":"uint256"},{"name":"priorityFlag","type":"bool","internalType":"bool"},{"name":"executor","type":"address","internalType":"address"},{"name":"signature","type":"bytes","internalType":"bytes"}]}],"outputs":[{"name":"successfulTransactions","type":"uint256","internalType":"uint256"},{"name":"failedTransactions","type":"uint256","internalType":"uint256"},{"name":"results","type":"bool[]","internalType":"bool[]"}],"stateMutability":"nonpayable"},{"type":"function","name":"payNoMateStaking_async","inputs":[{"name":"from","type":"address","internalType":"address"},{"name":"to_address","type":"address","internalType":"address"},{"name":"to_identity","type":"string","internalType":"string"},{"name":"token","type":"address","internalType":"address"},{"name":"amount","type":"uint256","internalType":"uint256"},{"name":"priorityFee","type":"uint256","internalType":"uint256"},{"name":"nonce","type":"uint256","internalType":"uint256"},{"name":"executor","type":"address","internalType":"address"},{"name":"signature","type":"bytes","internalType":"bytes"}],"outputs":[],"stateMutability":"nonpayable"},{"type":"function","name":"payNoMateStaking_sync","inputs":[{"name":"from","type":"address","internalType":"address"},{"name":"to_address","type":"address","internalType":"address"},{"name":"to_identity","type":"string","internalType":"string"},{"name":"token","type":"address","internalType":"address"},{"name":"amount","type":"uint256","internalType":"uint256"},{"name":"priorityFee","type":"uint256","internalType":"uint256"},{"name":"executor","type":"address","internalType":"address"},{"name":"signature","type":"bytes","internalType":"bytes"}],"outputs":[],"stateMutability":"nonpayable"},{"type":"function","name":"pointStaker","inputs":[{"name":"user","type":"address","internalType":"address"},{"name":"answer","type":"bytes1","internalType":"bytes1"}],"outputs":[],"stateMutability":"nonpayable"},{"type":"function","name":"prepareMaxAmountToWithdraw","inputs":[{"name":"amount","type":"uint256","internalType":"uint256"}],"outputs":[],"stateMutability":"nonpayable"},{"type":"function","name":"prepareTokenToBeWhitelisted","inputs":[{"name":"token","type":"address","internalType":"address"},{"name":"pool","type":"address","internalType":"address"}],"outputs":[],"stateMutability":"nonpayable"},{"type":"function","name":"proposeAdmin","inputs":[{"name":"_newOwner","type":"address","internalType":"address"}],"outputs":[],"stateMutability":"nonpayable"},{"type":"function","name":"proposeImplementation","inputs":[{"name":"_newImpl","type":"address","internalType":"address"}],"outputs":[],"stateMutability":"nonpayable"},{"type":"function","name":"recalculateReward","inputs":[],"outputs":[],"stateMutability":"nonpayable"},{"type":"function","name":"rejectProposalAdmin","inputs":[],"outputs":[],"stateMutability":"nonpayable"},{"type":"function","name":"rejectUpgrade","inputs":[],"outputs":[],"stateMutability":"nonpayable"},{"type":"function","name":"removeTokenWhitelist","inputs":[{"name":"token","type":"address","internalType":"address"}],"outputs":[],"stateMutability":"nonpayable"},{"type":"function","name":"setMaxAmountToWithdraw","inputs":[],"outputs":[],"stateMutability":"nonpayable"},{"type":"function","name":"setNameServiceAddress","inputs":[{"name":"_nameServiceAddress","type":"address","internalType":"address"}],"outputs":[],"stateMutability":"nonpayable"},{"type":"error","name":"InsufficientBalance","inputs":[]},{"type":"error","name":"InvalidAmount","inputs":[{"name":"","type":"uint256","internalType":"uint256"},{"name":"","type":"uint256","internalType":"uint256"}]},{"type":"error","name":"InvalidAsyncNonce","inputs":[]},{"type":"error","name":"InvalidSignature","inputs":[]},{"type":"error","name":"NotAnCA","inputs":[]},{"type":"error","name":"NotAnStaker","inputs":[]},{"type":"error","name":"SenderIsNotTheExecutor","inputs":[]},{"type":"error","name":"UpdateBalanceFailed","inputs":[]}],"bytecode":{"object":"0x60806040523461069e57613fb680380380610019816106a2565b928339810160608282031261069e57610031826106c7565b61003d602084016106c7565b604084015190936001600160401b03821161069e5701916101008382031261069e576040519061010082016001600160401b0381118382101761045d5760405283516001600160401b03811161069e578161009991860161071b565b825260208401516001600160401b03811161069e57840181601f8201121561069e57818160206100cb935191016106db565b6020830190815260408501519091906001600160401b03811161069e57816100f491870161071b565b60408401908152606086015190916001600160401b03821161069e5761011b91870161071b565b916060840192835261012f608087016106c7565b936080810194855260a08701519560a0820196875260e060c08901519860c08401998a5201519860e08301998a5260018060a01b0316908160018060a01b0319600454161760045560018060a01b031660018060a01b0319601754161760175567016345785d8a0000601d556010548060011b908082046002149015171561068a57815f52602160205260405f2060018060a01b03600d54165f5260205260405f20555f526020805260405f20600160ff19825416179055600160ff1960085416176008555180519060018060401b03821161045d57610210600954610738565b601f811161063c575b50602090601f83116001146105d75761024992915f9183610394575b50508160011b915f199060031b1c19161790565b6009555b518051906001600160401b03821161045d5761026a600a54610738565b601f8111610589575b50602090601f8311600114610524576102a292915f91836103945750508160011b915f199060031b1c19161790565b600a555b518051906001600160401b03821161045d576102c3600b54610738565b601f81116104d6575b50602090601f8311600114610471576102fb92915f91836103945750508160011b915f199060031b1c19161790565b600b555b518051906001600160401b03821161045d5761031c600c54610738565b601f8111610404575b50602090601f831160011461039f5761035492915f91836103945750508160011b915f199060031b1c19161790565b600c555b51600d80546001600160a01b0319166001600160a01b039290921691909117905551600e5551600f555160105560405161382f90816107878239f35b015190505f80610235565b90601f19831691600c5f52815f20925f5b8181106103ec57509084600195949392106103d4575b505050811b01600c55610358565b01515f1960f88460031b161c191690555f80806103c6565b929360206001819287860151815501950193016103b0565b600c5f5261044d907fdf6966c971051c3d54ec59162606531493a51404a002842f56009d7e5cf4a8c7601f850160051c81019160208610610453575b601f0160051c0190610770565b5f610325565b9091508190610440565b634e487b7160e01b5f52604160045260245ffd5b90601f19831691600b5f52815f20925f5b8181106104be57509084600195949392106104a6575b505050811b01600b556102ff565b01515f1960f88460031b161c191690555f8080610498565b92936020600181928786015181550195019301610482565b600b5f5261051e907f0175b7a638427703f0dbe7bb9bbf987a2551717b34e79f33b5b1008d1fa01db9601f850160051c8101916020861061045357601f0160051c0190610770565b5f6102cc565b90601f19831691600a5f52815f20925f5b8181106105715750908460019594939210610559575b505050811b01600a556102a6565b01515f1960f88460031b161c191690555f808061054b565b92936020600181928786015181550195019301610535565b600a5f526105d1907fc65a7bb8d6351c1cf70c95a316cc6a92839c986682d98bc35f958f4883f9d2a8601f850160051c8101916020861061045357601f0160051c0190610770565b5f610273565b90601f1983169160095f52815f20925f5b818110610624575090846001959493921061060c575b505050811b0160095561024d565b01515f1960f88460031b161c191690555f80806105fe565b929360206001819287860151815501950193016105e8565b60095f52610684907f6e1540171b6c0c960b71a7020d9f60077f6af931a8bbf590da0223dacf75c7af601f850160051c8101916020861061045357601f0160051c0190610770565b5f610219565b634e487b7160e01b5f52601160045260245ffd5b5f80fd5b6040519190601f01601f191682016001600160401b0381118382101761045d57604052565b51906001600160a01b038216820361069e57565b9192916001600160401b03821161045d576106ff601f8301601f19166020016106a2565b938285528282011161069e57815f926020928387015e84010152565b9080601f8301121561069e578151610735926020016106db565b90565b90600182811c92168015610766575b602083101461075257565b634e487b7160e01b5f52602260045260245ffd5b91607f1691610747565b81811061077b575050565b5f815560010161077056fe60806040526004361015610019575b3415612c1f575b5f80fd5b5f3560e01c806306c8b9491461036857806309a69f57146103635780630e18b6811461035e5780630faff8e8146103595780630ff91c751461035457806312ca7d4c1461034f578063147bf6c41461034a57806315ba56e5146103455780631820170c14610340578063219f9c3d1461033b578063286b4b441461033657806329cca569146103315780633002bf191461032c5780633a8cd872146103275780633de62f67146103225780633f54542a1461031d5780634234a7061461031857806347ecd0f6146103135780634b4a293a1461030e5780634faa1fa2146103095780635300e16214610304578063643d430c146102ff5780636afe5795146102fa5780636cd30148146102f5578063719ca6df146102f057806373d867f5146102eb5780637d8e3059146102e6578063861cd16d146102e15780638bf6b935146102dc5780638e006981146102d757806391afcf5c146102d257806394e961c9146102cd578063954236dc146102c8578063959dd66f146102c35780639c113d1b146102be5780639ce6fa65146102b95780639dd18c15146102b4578063a2b2389d146102af578063a4cba4ba146102aa578063a7a096f6146102a5578063adb6233f146102a0578063b08361141461029b578063b38c950a14610296578063b581d59414610291578063c898a6e91461028c578063cb62c7bc14610287578063d0e3692d14610282578063d4fac45d1461027d578063d5d7b2f114610278578063e9a7e38a14610273578063eaa4d6ca1461026e578063ef83c1d6146102695763f4e1895b0361000e57611dcc565b611c84565b611c67565b611b88565b611b10565b611aca565b611a7b565b611a5e565b6119fa565b6119b2565b61197a565b611954565b61190e565b611851565b611815565b6117e1565b611754565b611705565b611641565b611604565b6115e7565b6115c1565b61159b565b611413565b611374565b611327565b6111bd565b611117565b6110b3565b611077565b611051565b61102b565b610fa8565b610de2565b610d35565b610d18565b610cdc565b610ca4565b610c56565b610c30565b610b76565b610b50565b610af8565b610acb565b6108a3565b610742565b6106c9565b610689565b610648565b610574565b61046a565b61044d565b6103da565b6001600160a01b0381160361001557565b6024359061038b8261036d565b565b6044359061038b8261036d565b60e4359061038b8261036d565b359061038b8261036d565b6040906003190112610015576004356103ca8161036d565b906024356103d78161036d565b90565b34610015576103e8366103b2565b906001600160a01b03601754163303610015576001600160a01b031690815f52602660205260ff60405f205416156100155761044b915f52602660205260405f2090610100600160a81b0382549160081b1690610100600160a81b031916179055565b005b34610015575f366003190112610015576020601054604051908152f35b34610015575f366003190112610015576019544210610015576018546001600160a01b03811680330361001557601780546001600160a01b0319908116929092179055166018555f601955005b805180835260209291819084018484015e5f828201840152601f01601f1916010190565b6020815261010060e061054561052f61051961050387518660208901526101208801906104b7565b6020880151878203601f190160408901526104b7565b6040870151868203601f190160608801526104b7565b6060860151858203601f190160808701526104b7565b60808501516001600160a01b031660a08501529360a081015160c085015260c081015182850152015191015290565b34610015575f366003190112610015575f60e0604051610593816107ac565b6060815260606020820152606060408201526060808201528260808201528260a08201528260c082015201526106446105ca610824565b6105d2611fbc565b81526105dc611ffc565b60208201526105e9611fd6565b60408201526105f6611fe9565b6060820152610620610610600d546001600160a01b031690565b6001600160a01b03166080830152565b600e5460a0820152600f5460c082015260105460e0820152604051918291826104db565b0390f35b34610015576020366003190112610015576001600160a01b0360043561066d8161036d565b165f526026602052602060ff60405f2054166040519015158152f35b34610015576020366003190112610015576004356001600160a01b0360175416330361001557601e556201518042018042116106c457601f55005b61200f565b34610015576020366003190112610015576004356106e68161036d565b6001600160a01b036017541690813303610015576001600160a01b0316908115908115610738575b50610015576001600160601b0360a01b60185416176018556201518042018042116106c457601955005b905081145f61070e565b34610015575f366003190112610015576001600160a01b0360175416330361001557601c54421061001557601b8054601a80546001600160a01b03199081166001600160a01b038416179091551690555f601c55005b634e487b7160e01b5f52604160045260245ffd5b61010081019081106001600160401b038211176107c857604052565b610798565b604081019081106001600160401b038211176107c857604052565b606081019081106001600160401b038211176107c857604052565b90601f801991011681019081106001600160401b038211176107c857604052565b6040519061038b61010083610803565b6040519061038b61014083610803565b6001600160401b0381116107c857601f01601f191660200190565b81601f820112156100155760208135910161087982610844565b926108876040519485610803565b8284528282011161001557815f92602092838601378301015290565b346100155760c0366003190112610015576004356108c08161036d565b602435906108cd8261036d565b6044356108d98161036d565b606435906084359360a4356001600160401b038111610015576109329186858561090a61092e95369060040161085f565b936109268a6001600160a01b03165f52602560205260405f2090565b54908a612c4e565b1590565b610abc5761095761094b600d546001600160a01b031690565b6001600160a01b031690565b6001600160a01b0382169081148015610a8b575b610a7c5715610a55575b6109de6109e69161098984610a479761204d565b6109c96109c1836109ab896001600160a01b03165f52602160205260405f2090565b906001600160a01b03165f5260205260405f2090565b91825461205a565b9055335f9081526021602052604090206109ab565b91825461204d565b9055601054610a2e6109de610a0c336001600160a01b03165f52602160205260405f2090565b600d546001600160a01b03165b6001600160a01b03165f5260205260405f2090565b90556001600160a01b03165f52602560205260405f2090565b610a518154612067565b9055005b601d54808511610a655750610975565b6307c83fcf60e41b5f52600485905260245260445ffd5b631e9acf1760e31b5f5260045ffd5b50610aab826109ab866001600160a01b03165f52602160205260405f2090565b54610ab6848761204d565b1161096b565b638baa579f60e01b5f5260045ffd5b34610015575f366003190112610015576001600160a01b03601754163303610015575f601e819055601f55005b34610015576020366003190112610015576020610b46600435610b1a8161036d565b6001600160a01b03165f90815260208052604090205460f81b6001600160f81b031916600160f81b1490565b6040519015158152f35b34610015575f3660031901126100155760206001600160a01b03601a5416604051908152f35b3461001557602036600319011261001557600435610b938161036d565b60085460f81b6001600160f81b0319161561001557610be6610a0c6001600160a01b03610bf59316806001600160601b0360a01b60035416176003556001600160a01b03165f52602160205260405f2090565b69021e19e0c9bab24000009055565b61044b610c23610c0d6003546001600160a01b031690565b6001600160a01b03165f526020805260405f2090565b805460ff19166001179055565b34610015575f3660031901126100155760206001600160a01b0360035416604051908152f35b34610015575f366003190112610015576001600160a01b03601754163303610015576001600160601b0360a01b600554166005556001600160601b0360a01b600654166006555f6007555f80f35b34610015575f366003190112610015576001600160a01b0360175416330361001557601b80546001600160a01b03191690555f601c55005b34610015576020366003190112610015576001600160a01b03600435610d018161036d565b165f526024602052602060405f2054604051908152f35b34610015575f366003190112610015576020600e54604051908152f35b34610015575f3660031901126100155760206001600160a01b03601b5416604051908152f35b9061010060031983011261001557600435610d758161036d565b91602435610d828161036d565b916044356001600160401b0381116100155782610da19160040161085f565b91606435610dae8161036d565b916084359160a4359160c435610dc38161036d565b9160e435906001600160401b038211610015576103d79160040161085f565b3461001557610e2861092e610df636610d5b565b81888486888a849f989e97999b9c610e21819c9f6001600160a01b03165f52602260205260405f2090565b5495612df9565b610abc576001600160a01b031680610f8d575b50335f908152602080526040902054610e659060f81b6001600160f81b031916600160f81b141590565b610f7e578390610e7f61092e610e79612075565b86612f98565b15610f6e5750506020610ebf92610ea461094b61094b6003546001600160a01b031690565b604051808096819463063c696360e11b83526004830161209e565b03915afa908115610f69578361092e92610ee2945f91610f3a575b505b87612fc5565b610f2b5781610f11575b610a4783610ef93361306e565b506001600160a01b03165f52602260205260405f2090565b610f209161092e913385612fc5565b610f2b575f80610eec565b63143070cd60e11b5f5260045ffd5b610f5c915060203d602011610f62575b610f548183610803565b810190612089565b5f610eda565b503d610f4a565b6120af565b610ee293509061092e9291610edc565b63298660c160e11b5f5260045ffd5b3303610f99575f610e3b565b632e3ac5bf60e11b5f5260045ffd5b34610015575f36600319011261001557600e54600f549081811115610015578181039081116106c45760011c81018091116106c457600f55610ff4601054610fee6131d9565b906120d0565b6110156109de610a0c336001600160a01b03165f52602160205260405f2090565b905561044b61102660105460011c90565b601055565b34610015575f3660031901126100155760206001600160a01b0360175416604051908152f35b34610015575f3660031901126100155760206001600160a01b0360045416604051908152f35b34610015576020366003190112610015576001600160a01b0360043561109c8161036d565b165f526022602052602060405f2054604051908152f35b34610015576110c1366103b2565b6001600160a01b03601754163303610015576001600160a01b038092166001600160601b0360a01b6005541617600555166001600160601b0360a01b60065416176006556201518042018042116106c457600755005b34610015575f366003190112610015576020601954604051908152f35b6101206003198201126100155760043561114d8161036d565b9160243561115a8161036d565b916044356001600160401b03811161001557816111799160040161085f565b916064356111868161036d565b916084359160a4359160c4359161119d60e46103a7565b9161010435906001600160401b038211610015576103d79160040161085f565b346100155761092e6111e96111d136611134565b9082899a9486888a969e968c869a9c9e9d9b9d612e80565b610abc576001600160a01b0316806112ef575b5061123361122c8761121f886001600160a01b03165f52602360205260405f2090565b905f5260205260405f2090565b5460ff1690565b6112e05761124561092e610e79612075565b156112d15750602061126a9293610ea461094b61094b6003546001600160a01b031690565b03915afa928315610f695761128c9361092e935f916112b2575b505b85612fc5565b610f2b5761044b9161121f610c23926001600160a01b03165f52602360205260405f2090565b6112cb915060203d602011610f6257610f548183610803565b5f611284565b61128c93509161092e92611286565b631849850b60e01b5f5260045ffd5b3303610f99575f6111fc565b6060906003190112610015576004356113138161036d565b906024356113208161036d565b9060443590565b34610015576001600160a01b03611365611340366112fb565b939091165f52602160205260405f20906001600160a01b03165f5260205260405f2090565b80549182018092116106c45755005b34610015575f366003190112610015576020601c54604051908152f35b6001600160401b0381116107c85760051b60200190565b8015150361001557565b60c4359061038b826113a8565b359061038b826113a8565b608090602092936060820194825283820152606060408201528451809452019201905f5b8181106113fb5750505090565b825115158452602093840193909201916001016113ee565b34610015576020366003190112610015576004356001600160401b038111610015573660238201121561001557806004013561144e81611391565b9161145c6040519384610803565b8183526024602084019260051b820101903682116100155760248101925b82841061149c5761064461148d86612142565b604093919351938493846113ca565b83356001600160401b0381116100155782016101406023198236030112610015576114c5610834565b916114d2602483016103a7565b83526114e0604483016103a7565b602084015260648201356001600160401b03811161001557611508906024369185010161085f565b6040840152611519608483016103a7565b606084015260a4820135608084015260c482013560a084015260e482013560c084015261154961010483016113bf565b60e084015261155b61012483016103a7565b610100840152610144820135926001600160401b0384116100155761158a60209493602486953692010161085f565b61012082015281520193019261147a565b34610015575f3660031901126100155760206001600160a01b0360185416604051908152f35b34610015575f3660031901126100155760206001600160a01b0360055416604051908152f35b34610015575f366003190112610015576020600754604051908152f35b34610015575f366003190112610015576001600160a01b0360175416330361001557601f54421061001557601e54601d555f601e555f601f555f80f35b34610015575f366003190112610015576001600160a01b03601754163303610015576007544210610015576116ad6001600160a01b036006541660405190611688826107cd565b6001825260208201526001600160a01b03600554165f52602660205260405f20612642565b6116dc610c236116c56005546001600160a01b031690565b6001600160a01b03165f52602660205260405f2090565b600580546001600160a01b0319169055600680546001600160a01b031916905561044b5f600755565b34610015576020366003190112610015576004356117228161036d565b6001600160a01b03601754163303610015576001600160a01b03166001600160601b0360a01b60035416176003555f80f35b34610015576020366003190112610015576004356117718161036d565b6001600160a01b03601754163303610015576001600160a01b03166001600160601b0360a01b601b541617601b5562278d0042018042116106c457601c55005b6040906003190112610015576004356117c98161036d565b906024356001600160f81b0319811681036100155790565b346100155761044b6001600160a01b036117fa366117b1565b91165f526020805260405f209060f81c60ff19825416179055565b34610015576020366003190112610015576001600160a01b0360043561183a8161036d565b165f526025602052602060405f2054604051908152f35b34610015576060366003190112610015576004356001600160401b03811161001557366023820112156100155780600401359061188d82611391565b9061189b6040519283610803565b8282526024602083019360061b8201019036821161001557602401925b8184106118d45761044b836118cb61037e565b60443591612684565b60408436031261001557602060409182516118ee816107cd565b86358152828701356118ff8161036d565b838201528152019301926118b8565b346100155761191c366117b1565b6001600160a01b03600454163303610015576001600160a01b0361044b92165f526020805260405f209060f81c60ff19825416179055565b3461001557602036600319011261001557600435600e549081018091116106c457600e55005b34610015575f366003190112610015576001600160a01b0360175416330361001557601880546001600160a01b03191690555f601955005b34610015576020366003190112610015576001600160a01b036004356119d78161036d565b165f52602660205260206001600160a01b0360405f205460081c16604051908152f35b3461001557611a08366112fb565b90333b15611a4f57611a1a9233612fc5565b15610f2b57335f90815260208052604090205460f81b6001600160f81b031916600160f81b14611a4657005b61044b3361306e565b633d0c12e760e21b5f5260045ffd5b34610015575f366003190112610015576020601d54604051908152f35b3461001557604036600319011261001557600435611a988161036d565b6001600160a01b0360243591165f52602360205260405f20905f52602052602060ff60405f2054166040519015158152f35b34610015576020611b076001600160a01b03611ae5366103b2565b91165f526021835260405f20906001600160a01b03165f5260205260405f2090565b54604051908152f35b3461001557602036600319011261001557600435611b2d8161036d565b6001600160a01b03601754163303610015576001600160a01b0316805f52602660205260ff60405f20541615610015575f908152602660205260409020805474ffffffffffffffffffffffffffffffffffffffffff19169055005b3461001557611bc661092e611b9c36610d5b565b908786999385878a99849e989b610e21879b9e6001600160a01b03165f52602260205260405f2090565b610abc576001600160a01b031680611c5b575b50611be861092e610e79612075565b15611c4c57506020611c0d9293610ea461094b61094b6003546001600160a01b031690565b03915afa928315610f6957611c2d9361092e935f916112b2575085612fc5565b610f2b57610a47906001600160a01b03165f52602260205260405f2090565b611c2d93509161092e92611286565b3303610f99575f611bd9565b34610015575f366003190112610015576020600f54604051908152f35b346100155761012036600319011261001557600435611ca28161036d565b6024356001600160401b038111610015576004019036601f83011215610015578135611ccd81611391565b92611cdb6040519485610803565b81845260208085019260051b820101903682116100155760208101925b828410611d4e578585611d0961038d565b60643560a435608435611d1a6113b2565b92611d2361039a565b9461010435976001600160401b03891161001557611d4861044b99369060040161085f565b97612853565b83356001600160401b0381116100155782016060601f1982360301126100155760405191611d7b836107e8565b602082013583526040820135611d908161036d565b60208401526060820135926001600160401b03841161001557611dbc602094938580953692010161085f565b6040820152815201930192611cf8565b346100155761092e611df8611de036611134565b81838587898d9e979f96989d8d8d919e9b9c9e612e80565b610abc576001600160a01b031680611ef7575b50335f908152602080526040902054611e359060f81b6001600160f81b031916600160f81b141590565b610f7e57611e5b61122c8861121f896001600160a01b03165f52602360205260405f2090565b6112e0578390611e6f61092e610e79612075565b15611ee75750506020611e9492610ea461094b61094b6003546001600160a01b031690565b03915afa908115610f69578361092e92611eb5945f91610f3a575087612fc5565b610f2b5781611ecd575b505061128c61092e3361306e565b611edc9161092e913385612fc5565b610f2b575f80611ebf565b611eb593509061092e9291610edc565b3303610f99575f611e0b565b90600182811c92168015611f31575b6020831014611f1d57565b634e487b7160e01b5f52602260045260245ffd5b91607f1691611f12565b5f9291815491611f4a83611f03565b8083529260018116908115611f9f5750600114611f6657505050565b5f9081526020812093945091925b838310611f85575060209250010190565b600181602092949394548385870101520191019190611f74565b915050602093945060ff929192191683830152151560051b010190565b6040519061038b82611fcf816009611f3b565b0383610803565b6040519061038b82611fcf81600b611f3b565b6040519061038b82611fcf81600c611f3b565b6040519061038b82611fcf81600a611f3b565b634e487b7160e01b5f52601160045260245ffd5b90600c82018092116106c457565b60020190816002116106c457565b60030190816003116106c457565b919082018092116106c457565b919082039182116106c457565b5f1981146106c45760010190565b60405190612084602083610803565b5f8252565b9081602091031261001557516103d78161036d565b9060206103d79281815201906104b7565b6040513d5f823e3d90fd5b908160011b91808304600214901517156106c457565b818102929181159184041417156106c457565b906120ed82611391565b6120fa6040519182610803565b828152809261210b601f1991611391565b0190602036910137565b634e487b7160e01b5f52603260045260245ffd5b805182101561213d5760209160051b010190565b612115565b5f915f61214f83516120e3565b905f905b845182101561260657818061217961216b8289612129565b51516001600160a01b031690565b87808061219a602061218b8784612129565b5101516001600160a01b031690565b60406121a68784612129565b5101516121b8606061218b8986612129565b60806121c48986612129565b5101519160a06121d48a87612129565b510151936121ef60e06121e78c89612129565b510151151590565b156125bb57896121ff8188612129565b5160c00151966122409c61223161010061218b61092e9f61222b60e06121e76101209961223799612129565b9d612129565b9a612129565b51015198612ee0565b610abc5761225761094b61010061218b8589612129565b612597575b61226b60e06121e78488612129565b1561253a576122bb61092e61122c6122a061228961216b878b612129565b6001600160a01b03165f52602360205260405f2090565b60c06122ac878b612129565b5101515f5260205260405f2090565b1561252f576122e2610c236122d661228961216b868a612129565b60c06122ac868a612129565b61230561092e60406122f48589612129565b5101516122ff612075565b90612f98565b1561251b57612352602061232761094b61094b6003546001600160a01b031690565b6040612333868a612129565b51015190604051808095819463063c696360e11b83526004830161209e565b03915afa908115610f69575f916124fd575b505b61238d60a06123758589612129565b5101516080612384868a612129565b5101519061204d565b6123c66123b76123a061216b878b612129565b6001600160a01b03165f52602160205260405f2090565b610a19606061218b888c612129565b54106124f15761092e612406916123e061216b868a612129565b906123f0606061218b888c612129565b9060806123fd888c612129565b51015192612fc5565b1561242b57612416600191612067565b915f6124228286612129565b525b0190612153565b909460a06124398787612129565b5101511515806124ca575b61246d575b612454600191612067565b956124686124628286612129565b60019052565b612424565b6124a661092e61248061216b8989612129565b61248f606061218b8b8b612129565b60a061249b8b8b612129565b510151913390612fc5565b156124495794906124b8600191612067565b915f6124c48286612129565b52612424565b50335f90815260208052604090205460f81b6001600160f81b031916600160f81b14612444565b506124b8600191612067565b612515915060203d8111610f6257610f548183610803565b5f612364565b61252a602061218b8488612129565b612366565b6124b8600191612067565b61256161254a61216b8488612129565b6001600160a01b03165f52602260205260405f2090565b5460c061256e8488612129565b5101510361252f5761258661254a61216b8488612129565b6125908154612067565b90556122e2565b6125aa61094b61010061218b8589612129565b331461225c576124b8600191612067565b896125c68188612129565b51516001600160a01b03165f90815260226020526040902054966122409c61223161010061218b61092e9f61222b60e06121e76101209961223799612129565b335f90815260208052604090205490945091929160f81b6001600160f81b031916600160f81b14905061263557565b61263f843361311c565b50565b6001600160a01b03602061038b938051151560ff80198654169116178455015116610100600160a81b0382549160081b1690610100600160a81b031916179055565b909291333b15611a4f575f816126af866109ab336001600160a01b03165f52602160205260405f2090565b5410610a7c576126d4856109ab336001600160a01b03165f52602160205260405f2090565b6126df83825461205a565b90555f905b835182101561275557612703906126fb8386612129565b51519061204d565b9082821161273c578061271860019286612129565b51516127336109de896109ab6123a0602061218b888d612129565b905501906126e4565b6307c83fcf60e41b5f526004829052602483905260445ffd5b925050919250818103612794575050335f90815260208052604090205460f81b6001600160f81b031916600160f81b1461278b57565b61263f3361306e565b6307c83fcf60e41b5f5260045260245260445ffd5b602081016020825282518091526040820191602060408360051b8301019401925f915b8383106127db57505050505090565b909192939460208061281d600193603f19868203018752606060408b51805184526001600160a01b0386820151168685015201519181604082015201906104b7565b970193019301919392906127cc565b805191908290602001825e015f815290565b9081602091031261001557516103d7816113a8565b91989396909594929760205f61288f604051612883816128758d8783016127a9565b03601f198101835282610803565b6040519182809261282c565b039060025afa15610f695761092e6128b99183888d8c8e5f5192845f14612bfd578b935b8b613245565b610abc576001600160a01b0385911680612bee575b50612bb8575b6128f3886109ab836001600160a01b03165f52602160205260405f2090565b546128fe878961204d565b11610a7c575f9361290f878961204d565b6129316109c18b6109ab866001600160a01b03165f52602160205260405f2090565b90555f965f955b8751871015612adc5761294f906126fb888a612129565b958a61296361092e60406122f4858d612129565b15612aa757506129af61298461094b61094b6003546001600160a01b031690565b60206040612992858d612129565b510151604051809481926310d9158b60e31b83526004830161209e565b0381845afa8015610f69578d925f91612a79575b50612a05575b5090896129fc6109de6001946109ab6129e2868f612129565b5151946001600160a01b03165f52602160205260405f2090565b90550195612938565b899a50602091506040612a1b84612a3a9c612129565b5101519060405180809c8194630d3dcb9f60e01b83526004830161209e565b03915afa908115610f6957808c928b9a5f91612a5b575b509a5091906129c9565b612a73915060203d8111610f6257610f548183610803565b5f612a51565b612a9a915060203d8111612aa0575b612a928183610803565b81019061283e565b5f6129c3565b503d612a88565b9088995080612ab6818b612129565b51602001516001600160a01b03169a6109de6001946109ab6129e28f956129fc95612129565b92975094509450969196959095818103612794575050335f90815260208052604090205460f81b6001600160f81b031916600160f81b03612b8f576109de612b3b91612b273361306e565b50335f9081526021602052604090206109ab565b90555b15612b655761038b9161121f610c23926001600160a01b03165f52602360205260405f2090565b612b8191506001600160a01b03165f52602260205260405f2090565b612b8b8154612067565b9055565b6109de612bb1916109ab866001600160a01b03165f52602160205260405f2090565b9055612b3e565b612bda61122c8361121f846001600160a01b03165f52602360205260405f2090565b156128d457631849850b60e01b5f5260045ffd5b90503303610f9957835f6128ce565b612c188b6001600160a01b03165f52602260205260405f2090565b54936128b3565b601a546001600160a01b03811615610015575f8091368280378136915af43d5f803e15612c4a573d5ff35b3d5ffd5b9490612c5e9096949293966133ee565b92612c68906134fb565b95612c72906133ee565b91612c7c906134fb565b90612c86906134fb565b9160405196879460208601612c9a9161282c565b600b60fa1b8152600101612cad9161282c565b600b60fa1b8152600101612cc09161282c565b600b60fa1b8152600101612cd39161282c565b600b60fa1b8152600101612ce69161282c565b03601f1981018452612cf89084610803565b6103d792613651565b60405190612d10604083610803565b600582526466616c736560d81b6020830152565b60405190612d33604083610803565b60048252637472756560e01b6020830152565b95939197969492909760405198899760208901612d629161282c565b600b60fa1b8152600101612d759161282c565b600b60fa1b8152600101612d889161282c565b600b60fa1b8152600101612d9b9161282c565b600b60fa1b8152600101612dae9161282c565b600b60fa1b8152600101612dc19161282c565b600b60fa1b8152600101612dd49161282c565b600b60fa1b8152600101612de79161282c565b03601f198101835261038b9083610803565b969291946103d798969194612e53612e4d612e4d612e4d612e6b9a6040519a612e2360408d610803565b60088c52671a3330b098b3309960c11b60208d01526001600160a01b038116612e705750976133ee565b936134fb565b93612e65612e5f612d01565b966133ee565b96612d46565b613651565b612e7a91506133ee565b976133ee565b969291946103d798969194612ed4612e4d612e4d612e4d612e6b9a6040519a612eaa60408d610803565b60088c5267331a32989c1c9ab160c11b60208d01526001600160a01b038116612e705750976133ee565b93612e65612e5f612d24565b97936103d7999793612f43612f3d612f3d612f3d612e6b9b979a969a895f14612f6f57604051612f11604082610803565b6008815267331a32989c1c9ab160c11b60208201529b5b6001600160a01b038116612f5f5750946133ee565b946134fb565b9415612f5457612e65612e5f612d24565b612e65612e5f612d01565b612f6991506133ee565b946133ee565b604051612f7d604082610803565b60088152671a3330b098b3309960c11b60208201529b612f28565b9081518151908181149384612faf575b5050505090565b602092939450820120920120145f808080612fa8565b6001600160a01b03909291921691825f526021602052612ff98260405f20906001600160a01b03165f5260205260405f2090565b54908482101561300c5750505050505f90565b846001600160a01b0392613063955f526021602052036130408460405f20906001600160a01b03165f5260205260405f2090565b55165f52602160205260405f20906001600160a01b03165f5260205260405f2090565b908154019055600190565b601054801581800460011417156106c4576001600160a01b038216805f52602160205260405f206130bc6001600160a01b03600d54168092906001600160a01b03165f5260205260405f2090565b5492808401938481116106c457613117946130f96130ff94610a0c965f52602160205260405f20906001600160a01b03165f5260205260405f2090565b5561204d565b926001600160a01b03165f52602160205260405f2090565b541490565b90613129906010546120d0565b906001600160a01b038116805f52602160205260405f20916131686001600160a01b03600d54168094906001600160a01b03165f5260205260405f2090565b549384018094116106c457836131a0613117946131b8945f52602160205260405f20906001600160a01b03165f5260205260405f2090565b556001600160a01b03165f52602160205260405f2090565b6001600160a01b03600d54166001600160a01b03165f5260205260405f2090565b6113db6040516020810190428252446040820152604081526131fc606082610803565b51902006600101806001116106c45790565b94929096959391604051978896602088016732b31c19b198b21b60c11b905260288801600b60fa1b905260298801612d759161282c565b96979593919492909460405195639201de5560e01b875260048701525f8660248173__$2158dec17d05c1882e99bc1bb37b0eceb8$__5af4958615610f69575f966132d2575b50916103d79893916132aa612e4d612e4d612e4d612e6b9a99976133ee565b93156132c7576132c16132bb612d24565b956133ee565b9561320e565b6132c16132bb612d01565b989391955093913d805f8b3e6132e8818b610803565b8901986020818b0312610015578051906001600160401b03821161001557019589601f880112156100155786519661331f88610844565b9a61332d6040519c8d610803565b888c526020898301011161001557612e4d612e4d612e4d6103d79d5f60208d612e6b9e826132aa99018386015e830101529a50505050509193989490929461328b565b6040519061337f604083610803565b601082526f181899199a1a9b1b9c1cb0b131b232b360811b6020830152565b604051606091906133af8382610803565b602a815291601f1901366020840137565b80511561213d5760200190565b80516001101561213d5760210190565b90815181101561213d570160200190565b6001600160a01b03166133ff613370565b9061340861339e565b916030613414846133c0565b536078613420846133cd565b535f5b601481106134315750505090565b61343a81612023565b602081101561213d576134689061345a9085901a60041c600f16846133dd565b516001600160f81b03191690565b61348661347c613477846120ba565b612031565b915f1a91866133dd565b5361349081612023565b90602082101561213d576134ae61345a600f866001951a16856133dd565b6134cc6134c26134bd846120ba565b61203f565b915f1a91876133dd565b5301613423565b906134dd82610844565b6134ea6040519182610803565b828152809261210b601f1991610844565b805f9172184f03e93ff9f4daa797ed6e38ed64bf6a1f0160401b82101561362e575b806d04ee2d6d415b85acef8100000000600a921015613612575b662386f26fc100008110156135fd575b6305f5e1008110156135eb575b6127108110156135db575b60648110156135cc575b10156135c1575b6135ac6021613581600185016134d3565b938401015b5f1901916f181899199a1a9b1b9c1cb0b131b232b360811b600a82061a8353600a900490565b80156135bc576135ac9091613586565b505090565b600190910190613570565b60029060649004930192613569565b600490612710900493019261355f565b6008906305f5e1009004930192613554565b601090662386f26fc100009004930192613547565b6020906d04ee2d6d415b85acef81000000009004930192613537565b506040915072184f03e93ff9f4daa797ed6e38ed64bf6a1f0160401b810461351d565b6128756136a361366183516134fb565b9260405192839161369d60208401967f19457468657265756d205369676e6564204d6573736167653a0a0000000000008852603a85019061282c565b9061282c565b519020604182510361375657815f916020809401519160606040820151910151841a92601b841061373f575b90613713916136ed60ff8616601b8114908115613734575b506137ad565b604051948594859094939260ff6060936080840197845216602083015260408201520152565b838052039060015afa15610f69576001600160a01b03805f51921691161490565b601c9150145f6136e7565b929061374d6137139261379b565b939091506136cf565b60405162461bcd60e51b815260206004820152601860248201527f496e76616c6964207369676e6174757265206c656e67746800000000000000006044820152606490fd5b60ff601b9116019060ff82116106c457565b156137b457565b60405162461bcd60e51b815260206004820152601760248201527f496e76616c6964207369676e61747572652076616c75650000000000000000006044820152606490fdfea2646970667358221220db9dcebe55861ba0a88d3aaa956721666111180e6d603ef63fb571f0c9d9232e64736f6c634300081c0033","linkReferences":{"src/lib/AdvancedStrings.sol":{"AdvancedStrings":[{"start":14831,"length":20}]}}},"methodIdentifiers":{"_addBalance(address,address,uint256)":"861cd16d","_addMateToTotalSupply(uint256)":"b0836114","_setPointStaker(address,bytes1)":"a2b2389d","_setupNameServiceAddress(address)":"3002bf19","acceptAdmin()":"0e18b681","acceptImplementation()":"15ba56e5","addTokenToWhitelist()":"9c113d1b","caPay(address,address,uint256)":"c898a6e9","cancelPrepareMaxAmountToWithdraw()":"219f9c3d","cancelPrepareTokenToBeWhitelisted()":"3de62f67","changePool(address,address)":"06c8b949","disperseCaPay((uint256,address)[],address,uint256)":"a7a096f6","dispersePay(address,(uint256,address,string)[],address,uint256,uint256,uint256,bool,address,bytes)":"ef83c1d6","fisherWithdrawal(address,address,address,uint256,uint256,bytes)":"1820170c","getBalance(address,address)":"d4fac45d","getCurrentAdmin()":"643d430c","getCurrentImplementation()":"29cca569","getEraPrincipalToken()":"eaa4d6ca","getEvvmMetadata()":"0faff8e8","getIfTokenIsWhitelisted(address)":"0ff91c75","getIfUsedAsyncNonce(address,uint256)":"d0e3692d","getMaxAmountToWithdraw()":"cb62c7bc","getNameServiceAddress()":"3a8cd872","getNextCurrentSyncNonce(address)":"6cd30148","getNextFisherDepositNonce(address)":"4234a706","getNextFisherWithdrawalNonce(address)":"a4cba4ba","getPrincipalTokenTotalSupply()":"47ecd0f6","getProposalAdmin()":"91afcf5c","getProposalImplementation()":"4b4a293a","getRewardAmount()":"09a69f57","getStakingContractAddress()":"6afe5795","getTimeToAcceptAdmin()":"73d867f5","getTimeToAcceptImplementation()":"8bf6b935","getTokenUniswapPool(address)":"b581d594","getWhitelistTokenToBeAdded()":"94e961c9","getWhitelistTokenToBeAddedDateToSet()":"954236dc","isAddressStaker(address)":"286b4b44","payMateStaking_async(address,address,string,address,uint256,uint256,uint256,address,bytes)":"f4e1895b","payMateStaking_sync(address,address,string,address,uint256,uint256,address,bytes)":"4faa1fa2","payMultiple((address,address,string,address,uint256,uint256,uint256,bool,address,bytes)[])":"8e006981","payNoMateStaking_async(address,address,string,address,uint256,uint256,uint256,address,bytes)":"7d8e3059","payNoMateStaking_sync(address,address,string,address,uint256,uint256,address,bytes)":"e9a7e38a","pointStaker(address,bytes1)":"adb6233f","prepareMaxAmountToWithdraw(uint256)":"12ca7d4c","prepareTokenToBeWhitelisted(address,address)":"719ca6df","proposeAdmin(address)":"147bf6c4","proposeImplementation(address)":"9dd18c15","recalculateReward()":"5300e162","rejectProposalAdmin()":"b38c950a","rejectUpgrade()":"3f54542a","removeTokenWhitelist(address)":"d5d7b2f1","setMaxAmountToWithdraw()":"959dd66f","setNameServiceAddress(address)":"9ce6fa65"},"id":20}