{"abi":[{"type":"constructor","inputs":[{"name":"_evvmAddress","type":"address","internalType":"address"},{"name":"_initialOwner","type":"address","internalType":"address"}],"stateMutability":"nonpayable"},{"type":"function","name":"acceptChangeEvvmAddress","inputs":[],"outputs":[],"stateMutability":"nonpayable"},{"type":"function","name":"acceptOffer","inputs":[{"name":"user","type":"address","internalType":"address"},{"name":"username","type":"string","internalType":"string"},{"name":"offerID","type":"uint256","internalType":"uint256"},{"name":"nonce","type":"uint256","internalType":"uint256"},{"name":"signature","type":"bytes","internalType":"bytes"},{"name":"priorityFee_EVVM","type":"uint256","internalType":"uint256"},{"name":"nonce_EVVM","type":"uint256","internalType":"uint256"},{"name":"priorityFlag_EVVM","type":"bool","internalType":"bool"},{"name":"signature_EVVM","type":"bytes","internalType":"bytes"}],"outputs":[],"stateMutability":"nonpayable"},{"type":"function","name":"acceptProposeAdmin","inputs":[],"outputs":[],"stateMutability":"nonpayable"},{"type":"function","name":"addCustomMetadata","inputs":[{"name":"user","type":"address","internalType":"address"},{"name":"identity","type":"string","internalType":"string"},{"name":"value","type":"string","internalType":"string"},{"name":"nonce","type":"uint256","internalType":"uint256"},{"name":"signature","type":"bytes","internalType":"bytes"},{"name":"priorityFee_EVVM","type":"uint256","internalType":"uint256"},{"name":"nonce_EVVM","type":"uint256","internalType":"uint256"},{"name":"priorityFlag_EVVM","type":"bool","internalType":"bool"},{"name":"signature_EVVM","type":"bytes","internalType":"bytes"}],"outputs":[],"stateMutability":"nonpayable"},{"type":"function","name":"cancelChangeEvvmAddress","inputs":[],"outputs":[],"stateMutability":"nonpayable"},{"type":"function","name":"cancelProposeAdmin","inputs":[],"outputs":[],"stateMutability":"nonpayable"},{"type":"function","name":"cancelWithdrawMateTokens","inputs":[],"outputs":[],"stateMutability":"nonpayable"},{"type":"function","name":"checkIfNameServiceNonceIsAvailable","inputs":[{"name":"_user","type":"address","internalType":"address"},{"name":"_nonce","type":"uint256","internalType":"uint256"}],"outputs":[{"name":"","type":"bool","internalType":"bool"}],"stateMutability":"view"},{"type":"function","name":"claimWithdrawMateTokens","inputs":[],"outputs":[],"stateMutability":"nonpayable"},{"type":"function","name":"flushCustomMetadata","inputs":[{"name":"user","type":"address","internalType":"address"},{"name":"identity","type":"string","internalType":"string"},{"name":"nonce","type":"uint256","internalType":"uint256"},{"name":"signature","type":"bytes","internalType":"bytes"},{"name":"priorityFee_EVVM","type":"uint256","internalType":"uint256"},{"name":"nonce_EVVM","type":"uint256","internalType":"uint256"},{"name":"priorityFlag_EVVM","type":"bool","internalType":"bool"},{"name":"signature_EVVM","type":"bytes","internalType":"bytes"}],"outputs":[],"stateMutability":"nonpayable"},{"type":"function","name":"flushUsername","inputs":[{"name":"user","type":"address","internalType":"address"},{"name":"username","type":"string","internalType":"string"},{"name":"nonce","type":"uint256","internalType":"uint256"},{"name":"signature","type":"bytes","internalType":"bytes"},{"name":"priorityFee_EVVM","type":"uint256","internalType":"uint256"},{"name":"nonce_EVVM","type":"uint256","internalType":"uint256"},{"name":"priorityFlag_EVVM","type":"bool","internalType":"bool"},{"name":"signature_EVVM","type":"bytes","internalType":"bytes"}],"outputs":[],"stateMutability":"nonpayable"},{"type":"function","name":"getAdmin","inputs":[],"outputs":[{"name":"","type":"address","internalType":"address"}],"stateMutability":"view"},{"type":"function","name":"getAdminFullDetails","inputs":[],"outputs":[{"name":"currentAdmin","type":"address","internalType":"address"},{"name":"proposalAdmin","type":"address","internalType":"address"},{"name":"timeToAcceptAdmin","type":"uint256","internalType":"uint256"}],"stateMutability":"view"},{"type":"function","name":"getAmountOfCustomMetadata","inputs":[{"name":"_username","type":"string","internalType":"string"}],"outputs":[{"name":"","type":"uint256","internalType":"uint256"}],"stateMutability":"view"},{"type":"function","name":"getCustomMetadataMaxSlotsOfIdentity","inputs":[{"name":"_username","type":"string","internalType":"string"}],"outputs":[{"name":"","type":"uint256","internalType":"uint256"}],"stateMutability":"view"},{"type":"function","name":"getEvvmAddress","inputs":[],"outputs":[{"name":"","type":"address","internalType":"address"}],"stateMutability":"view"},{"type":"function","name":"getEvvmAddressFullDetails","inputs":[],"outputs":[{"name":"currentEvvmAddress","type":"address","internalType":"address"},{"name":"proposalEvvmAddress","type":"address","internalType":"address"},{"name":"timeToAcceptEvvmAddress","type":"uint256","internalType":"uint256"}],"stateMutability":"view"},{"type":"function","name":"getExpireDateOfIdentity","inputs":[{"name":"_identity","type":"string","internalType":"string"}],"outputs":[{"name":"","type":"uint256","internalType":"uint256"}],"stateMutability":"view"},{"type":"function","name":"getFullCustomMetadataOfIdentity","inputs":[{"name":"_username","type":"string","internalType":"string"}],"outputs":[{"name":"","type":"string[]","internalType":"string[]"}],"stateMutability":"view"},{"type":"function","name":"getIdentityBasicMetadata","inputs":[{"name":"_username","type":"string","internalType":"string"}],"outputs":[{"name":"","type":"address","internalType":"address"},{"name":"","type":"uint256","internalType":"uint256"}],"stateMutability":"view"},{"type":"function","name":"getLengthOfOffersUsername","inputs":[{"name":"_username","type":"string","internalType":"string"}],"outputs":[{"name":"length","type":"uint256","internalType":"uint256"}],"stateMutability":"view"},{"type":"function","name":"getOffersOfUsername","inputs":[{"name":"_username","type":"string","internalType":"string"}],"outputs":[{"name":"offers","type":"tuple[]","internalType":"struct NameService.OfferMetadata[]","components":[{"name":"offerer","type":"address","internalType":"address"},{"name":"expireDate","type":"uint256","internalType":"uint256"},{"name":"amount","type":"uint256","internalType":"uint256"}]}],"stateMutability":"view"},{"type":"function","name":"getOwnerOfIdentity","inputs":[{"name":"_username","type":"string","internalType":"string"}],"outputs":[{"name":"","type":"address","internalType":"address"}],"stateMutability":"view"},{"type":"function","name":"getPricePerRegistration","inputs":[],"outputs":[{"name":"","type":"uint256","internalType":"uint256"}],"stateMutability":"view"},{"type":"function","name":"getPriceToAddCustomMetadata","inputs":[],"outputs":[{"name":"price","type":"uint256","internalType":"uint256"}],"stateMutability":"view"},{"type":"function","name":"getPriceToFlushCustomMetadata","inputs":[{"name":"_identity","type":"string","internalType":"string"}],"outputs":[{"name":"price","type":"uint256","internalType":"uint256"}],"stateMutability":"view"},{"type":"function","name":"getPriceToFlushUsername","inputs":[{"name":"_identity","type":"string","internalType":"string"}],"outputs":[{"name":"price","type":"uint256","internalType":"uint256"}],"stateMutability":"view"},{"type":"function","name":"getPriceToRemoveCustomMetadata","inputs":[],"outputs":[{"name":"price","type":"uint256","internalType":"uint256"}],"stateMutability":"view"},{"type":"function","name":"getProposedWithdrawAmountFullDetails","inputs":[],"outputs":[{"name":"proposalAmountToWithdrawTokens","type":"uint256","internalType":"uint256"},{"name":"timeToAcceptAmountToWithdrawTokens","type":"uint256","internalType":"uint256"}],"stateMutability":"view"},{"type":"function","name":"getSingleCustomMetadataOfIdentity","inputs":[{"name":"_username","type":"string","internalType":"string"},{"name":"_key","type":"uint256","internalType":"uint256"}],"outputs":[{"name":"","type":"string","internalType":"string"}],"stateMutability":"view"},{"type":"function","name":"getSingleOfferOfUsername","inputs":[{"name":"_username","type":"string","internalType":"string"},{"name":"_offerID","type":"uint256","internalType":"uint256"}],"outputs":[{"name":"offer","type":"tuple","internalType":"struct NameService.OfferMetadata","components":[{"name":"offerer","type":"address","internalType":"address"},{"name":"expireDate","type":"uint256","internalType":"uint256"},{"name":"amount","type":"uint256","internalType":"uint256"}]}],"stateMutability":"view"},{"type":"function","name":"hashUsername","inputs":[{"name":"_username","type":"string","internalType":"string"},{"name":"_randomNumber","type":"uint256","internalType":"uint256"}],"outputs":[{"name":"","type":"bytes32","internalType":"bytes32"}],"stateMutability":"pure"},{"type":"function","name":"isUsernameAvailable","inputs":[{"name":"_username","type":"string","internalType":"string"}],"outputs":[{"name":"","type":"bool","internalType":"bool"}],"stateMutability":"view"},{"type":"function","name":"makeOffer","inputs":[{"name":"user","type":"address","internalType":"address"},{"name":"username","type":"string","internalType":"string"},{"name":"expireDate","type":"uint256","internalType":"uint256"},{"name":"amount","type":"uint256","internalType":"uint256"},{"name":"nonce","type":"uint256","internalType":"uint256"},{"name":"signature","type":"bytes","internalType":"bytes"},{"name":"priorityFee_EVVM","type":"uint256","internalType":"uint256"},{"name":"nonce_EVVM","type":"uint256","internalType":"uint256"},{"name":"priorityFlag_EVVM","type":"bool","internalType":"bool"},{"name":"signature_EVVM","type":"bytes","internalType":"bytes"}],"outputs":[{"name":"offerID","type":"uint256","internalType":"uint256"}],"stateMutability":"nonpayable"},{"type":"function","name":"preRegistrationUsername","inputs":[{"name":"user","type":"address","internalType":"address"},{"name":"hashPreRegisteredUsername","type":"bytes32","internalType":"bytes32"},{"name":"nonce","type":"uint256","internalType":"uint256"},{"name":"signature","type":"bytes","internalType":"bytes"},{"name":"priorityFee_EVVM","type":"uint256","internalType":"uint256"},{"name":"nonce_EVVM","type":"uint256","internalType":"uint256"},{"name":"priorityFlag_EVVM","type":"bool","internalType":"bool"},{"name":"signature_EVVM","type":"bytes","internalType":"bytes"}],"outputs":[],"stateMutability":"nonpayable"},{"type":"function","name":"proposeAdmin","inputs":[{"name":"_adminToPropose","type":"address","internalType":"address"}],"outputs":[],"stateMutability":"nonpayable"},{"type":"function","name":"proposeChangeEvvmAddress","inputs":[{"name":"_newEvvmAddress","type":"address","internalType":"address"}],"outputs":[],"stateMutability":"nonpayable"},{"type":"function","name":"proposeWithdrawMateTokens","inputs":[{"name":"_amount","type":"uint256","internalType":"uint256"}],"outputs":[],"stateMutability":"nonpayable"},{"type":"function","name":"registrationUsername","inputs":[{"name":"user","type":"address","internalType":"address"},{"name":"username","type":"string","internalType":"string"},{"name":"clowNumber","type":"uint256","internalType":"uint256"},{"name":"nonce","type":"uint256","internalType":"uint256"},{"name":"signature","type":"bytes","internalType":"bytes"},{"name":"priorityFee_EVVM","type":"uint256","internalType":"uint256"},{"name":"nonce_EVVM","type":"uint256","internalType":"uint256"},{"name":"priorityFlag_EVVM","type":"bool","internalType":"bool"},{"name":"signature_EVVM","type":"bytes","internalType":"bytes"}],"outputs":[],"stateMutability":"nonpayable"},{"type":"function","name":"removeCustomMetadata","inputs":[{"name":"user","type":"address","internalType":"address"},{"name":"identity","type":"string","internalType":"string"},{"name":"key","type":"uint256","internalType":"uint256"},{"name":"nonce","type":"uint256","internalType":"uint256"},{"name":"signature","type":"bytes","internalType":"bytes"},{"name":"priorityFee_EVVM","type":"uint256","internalType":"uint256"},{"name":"nonce_EVVM","type":"uint256","internalType":"uint256"},{"name":"priorityFlag_EVVM","type":"bool","internalType":"bool"},{"name":"signature_EVVM","type":"bytes","internalType":"bytes"}],"outputs":[],"stateMutability":"nonpayable"},{"type":"function","name":"renewUsername","inputs":[{"name":"user","type":"address","internalType":"address"},{"name":"username","type":"string","internalType":"string"},{"name":"nonce","type":"uint256","internalType":"uint256"},{"name":"signature","type":"bytes","internalType":"bytes"},{"name":"priorityFee_EVVM","type":"uint256","internalType":"uint256"},{"name":"nonce_EVVM","type":"uint256","internalType":"uint256"},{"name":"priorityFlag_EVVM","type":"bool","internalType":"bool"},{"name":"signature_EVVM","type":"bytes","internalType":"bytes"}],"outputs":[],"stateMutability":"nonpayable"},{"type":"function","name":"seePriceToRenew","inputs":[{"name":"_identity","type":"string","internalType":"string"}],"outputs":[{"name":"price","type":"uint256","internalType":"uint256"}],"stateMutability":"view"},{"type":"function","name":"strictVerifyIfIdentityExist","inputs":[{"name":"_username","type":"string","internalType":"string"}],"outputs":[{"name":"","type":"bool","internalType":"bool"}],"stateMutability":"view"},{"type":"function","name":"verifyIfIdentityExists","inputs":[{"name":"_identity","type":"string","internalType":"string"}],"outputs":[{"name":"","type":"bool","internalType":"bool"}],"stateMutability":"view"},{"type":"function","name":"verifyStrictAndGetOwnerOfIdentity","inputs":[{"name":"_username","type":"string","internalType":"string"}],"outputs":[{"name":"answer","type":"address","internalType":"address"}],"stateMutability":"view"},{"type":"function","name":"withdrawOffer","inputs":[{"name":"user","type":"address","internalType":"address"},{"name":"username","type":"string","internalType":"string"},{"name":"offerID","type":"uint256","internalType":"uint256"},{"name":"nonce","type":"uint256","internalType":"uint256"},{"name":"signature","type":"bytes","internalType":"bytes"},{"name":"priorityFee_EVVM","type":"uint256","internalType":"uint256"},{"name":"nonce_EVVM","type":"uint256","internalType":"uint256"},{"name":"priorityFlag_EVVM","type":"bool","internalType":"bool"},{"name":"signature_EVVM","type":"bytes","internalType":"bytes"}],"outputs":[],"stateMutability":"nonpayable"},{"type":"error","name":"AcceptOfferVerificationFailed","inputs":[]},{"type":"error","name":"EmptyCustomMetadata","inputs":[]},{"type":"error","name":"FlushUsernameVerificationFailed","inputs":[]},{"type":"error","name":"InvalidKey","inputs":[]},{"type":"error","name":"InvalidSignatureOnNameService","inputs":[]},{"type":"error","name":"InvalidUsername","inputs":[{"name":"","type":"bytes1","internalType":"bytes1"}]},{"type":"error","name":"NonceAlreadyUsed","inputs":[]},{"type":"error","name":"PreRegistrationNotValid","inputs":[]},{"type":"error","name":"RenewUsernameVerificationFailed","inputs":[]},{"type":"error","name":"SenderIsNotAdmin","inputs":[]},{"type":"error","name":"UserIsNotOwnerOfIdentity","inputs":[]},{"type":"error","name":"UserIsNotOwnerOfOffer","inputs":[]},{"type":"error","name":"UsernameAlreadyRegistered","inputs":[]}],"bytecode":{"object":"0x608034608657601f61403238819003918201601f19168301916001600160401b03831184841017608a578084926040948552833981010312608657604b6020604583609e565b9201609e565b600780546001600160a01b039384166001600160a01b031991821617909155600a8054929093169116179055604051613f8090816100b28239f35b5f80fd5b634e487b7160e01b5f52604160045260245ffd5b51906001600160a01b038216820360865756fe60806040526004361015610011575f80fd5b5f3560e01c8063044695cb146102ea5780630c78d2c6146102e55780630d1ffe3a146102e05780630d3dcb9f146102db578063147bf6c4146102d65780631f4131fb146102d157806322afca38146102cc57806324866f15146102c757806335723e23146102c257806336e7a1b8146102635780633ca44e54146102bd57806343a82d67146102b857806348ffba55146102b357806349166379146102ae5780634cfe021f146102a957806354dc585d146102a45780635548a7621461029f5780635761d8ed1461029a5780635d232a55146102955780636b5bb1ca146102815780636e9960c3146102905780637126b2a31461028b57806375dab53b146102865780637bd9da7a1461028157806381bb2df31461027c57806386c8ac581461027757806388ecb91f146102725780638adf39271461026d5780638e3bde431461026857806399e7bac214610263578063a6ba51ca1461025e578063a9e6f37f14610259578063afabc8db14610254578063b0d107da1461024f578063b19517dd1461024a578063b2bc0ed614610245578063b8086f9814610240578063bcd5a47c1461023b578063c97da33e14610236578063d2234a1a14610231578063d7fd31341461022c578063d82e5d8b14610227578063eba5e53e14610222578063f69c6dec1461021d578063f6d0ecbe146102185763fe7ab68314610213575f80fd5b612356565b612287565b61225e565b6121d4565b612122565b612057565b611fd3565b611f7c565b611f63565b611f49565b611f06565b611e41565b611c9a565b6119e5565b61199a565b61193b565b610bba565b611696565b611457565b61141f565b611407565b6113da565b611364565b6113c2565b6113a0565b61137a565b6112eb565b61110c565b611040565b611028565b610f72565b610f36565b610eaf565b610e33565b610bd4565b610988565b610950565b610929565b610909565b610880565b610847565b610821565b6107bb565b6104bd565b600435906001600160a01b038216820361030557565b5f80fd5b35906001600160a01b038216820361030557565b634e487b7160e01b5f52604160045260245ffd5b606081019081106001600160401b0382111761034c57604052565b61031d565b90601f801991011681019081106001600160401b0382111761034c57604052565b6040519061038160a083610351565b565b60405190610381606083610351565b6001600160401b03811161034c57601f01601f191660200190565b81601f82011215610305576020813591016103c782610392565b926103d56040519485610351565b8284528282011161030557815f92602092838601378301015290565b8015150361030557565b60e43590610381826103f1565b60c43590610381826103f1565b6101043590610381826103f1565b3590610381826103f1565b90610100600319830112610305576104466004610309565b916024356001600160401b0381116103055781610465916004016103ad565b91604435916064356001600160401b0381116103055781610488916004016103ad565b916084359160a4359161049b60c4610423565b9160e435906001600160401b038211610305576104ba916004016103ad565b90565b34610305576104cb3661042e565b919294936001600160a01b0388979816805f52600360205260405f20865f5260205260ff60405f205416610783576040516001600160a01b0390602081610512818e6123b4565b5f81520301902054160361077457600161052b896123c6565b01544210801590610748575b6107395761055a8761055e9261055561054f89613bdb565b8c613511565b613d31565b1590565b61072a57610576928561057089612a19565b886136c4565b5f5b6002610583866123c6565b01548110156105b757806105b16105ac60019361059f896123e2565b905f5260205260405f2090565b612544565b01610578565b506004849360206105e26105d66105d66007546001600160a01b031690565b6001600160a01b031690565b6040516309a69f5760e01b815293849182905afa938415610725576106f49561064461063e6106d0936106396106266106e79a61059f995f916106f6575b5061247e565b6002610631876123c6565b015490612531565b61261c565b33613761565b61067d6003610652836123c6565b01549161065d610372565b925f84525f60208501525f604085015260608401525f60808401526123c6565b815181546001600160a01b0319166001600160a01b03919091161781556080906004906020840151600182015560408401516002820155606084015160038201550191015160f81c60ff19825416179055565b6001600160a01b03165f52600360205260405f2090565b805460ff19166001179055565b005b610718915060203d60201161071e575b6107108183610351565b8101906125a3565b8d610620565b503d610706565b6125b2565b63c75c7b3960e01b5f5260045ffd5b630571f47b60e01b5f5260045ffd5b50600160f81b6001600160f81b031961076d60046107658c6123c6565b015460f81b90565b1614610537565b6322de326160e11b5f5260045ffd5b623f613760e71b5f5260045ffd5b602060031982011261030557600435906001600160401b038211610305576104ba916004016103ad565b346103055760206107cb36610791565b5f906107d681612f92565b6107ed575b506001600160a01b0360405191168152f35b6001600160a01b0391508261080891604051928380926123b4565b5f81520301902054165f6107db565b5f91031261030557565b34610305575f3660031901126103055760206001600160a01b0360075416604051908152f35b346103055760206001600160a01b0361086f8261086336610791565b604051928380926123b4565b5f8152030190205416604051908152f35b34610305576020366003190112610305576108996102ef565b6001600160a01b03600a5416908133036108fa576001600160a01b03169081159081156108f0575b50610305576001600160601b0360a01b600b541617600b556201518042018042116108eb57600c55005b61246a565b905081145f6108c1565b636587b01b60e11b5f5260045ffd5b3461030557602061092161091c36610791565b612629565b604051908152f35b34610305576020600161093f8261086336610791565b5f8152030190200154604051908152f35b34610305575f366003190112610305576001600160a01b03600a541633036108fa57600880546001600160a01b03191690555f600955005b34610305576109963661042e565b9091936001600160a01b03604098969798516020816109b5818d6123b4565b5f81520301902054166001600160a01b038716809103610774575f52600360205260405f20875f5260205260ff60405f20541661078357600160f81b6001600160f81b0319610a0860046107658c6123c6565b16148015610b9d575b610b8e5761055a86610a2f92610555610a298b613bdb565b8c6137c0565b61072a57610a4991610a4088612da9565b948486886136c4565b610a616105d66105d66007546001600160a01b031690565b604051630a1ad2d160e21b8152336004820152602081602481855afa908115610725575f91610b5f575b50610acb575b6106f46106e78661059f876001610aa78c6123c6565b01610ab281546125ce565b90556001600160a01b03165f52600360205260405f2090565b9060206004959492604051968780926309a69f5760e01b82525afa948515610725576106f496610b2a61063e6001946106396106e79a61059f99610aa7975f92610b36575b50610b1d610b249161248f565b6064900490565b9061261c565b96505081939450610a91565b610b24919250610b57610b1d9160203d60201161071e576107108183610351565b929150610b10565b610b81915060203d602011610b87575b610b798183610351565b810190612693565b5f610a8b565b503d610b6f565b63d23f0ec360e01b5f5260045ffd5b506001610ba9896123c6565b0154610bb4426125bd565b10610a11565b34610305575f3660031901126103055760206109216126a8565b3461030557610be23661042e565b919294936001600160a01b03604051602081610bfe818c6123b4565b5f81520301902054166001600160a01b038916809103610774575f52600360205260405f20855f5260205260ff60405f2054166107835761055a88610c4f92610555610c4989613bdb565b8b6137f9565b61072a576002610c5e876123c6565b015415610dc557610c799285610c7388612629565b896136c4565b5f5b6002610c86856123c6565b0154811015610ca85780610ca26105ac60019361059f886123e2565b01610c7b565b508383610cc36105d66105d66007546001600160a01b031690565b604051630a1ad2d160e21b8152336004820152909490602081602481895afa908115610725575f91610da6575b50610d26575b6106f46106e78561059f865f6002610d0d896123c6565b01556001600160a01b03165f52600360205260405f2090565b92916020600495604051968780926309a69f5760e01b82525afa8015610725576002610d0d61059f94610d7b61063e6106e799610639610d715f986106f49e8a91610d87575061247e565b87610631876123c6565b94505050509192610cf6565b610da0915060203d60201161071e576107108183610351565b8f610620565b610dbf915060203d602011610b8757610b798183610351565b86610cf0565b6334b7a09160e01b5f5260045ffd5b604060031982011261030557600435906001600160401b03821161030557610dfe916004016103ad565b9060243590565b610381909291926060810193604080916001600160a01b038151168452602081015160208501520151910152565b34610305576020610e5d610e4636610dd4565b9290610e5061270a565b50604051928380926123b4565b6001815203019020905f52602052610eab60405f20600260405191610e8183610331565b6001600160a01b038154168352600181015460208401520154604082015260405191829182610e05565b0390f35b34610305575f366003190112610305576001600160a01b03600a541633036108fa57600954421061030557610f206001600160a01b03600854165f60408051610ef781610331565b83815282602082015201526001600160a01b03166001600160601b0360a01b6007541617600755565b600880546001600160a01b03191690555f600955005b34610305575f36600319011261030557600754600854600954604080516001600160a01b03948516815293909216602084015290820152606090f35b346103055761012036600319011261030557610f8c6102ef565b6024356001600160401b03811161030557610fab9036906004016103ad565b906044356001600160401b03811161030557610fcb9036906004016103ad565b6064356084356001600160401b03811161030557610fed9036906004016103ad565b60a4359060c43592610ffd6103fb565b9461010435976001600160401b038911610305576110226106f49936906004016103ad565b97612759565b3461030557602061092161103b36610791565b612a19565b34610305575f36600319011261030557600a54600b54600c54604080516001600160a01b03948516815293909216602084015290820152606090f35b610120600319820112610305576110936004610309565b916024356001600160401b03811161030557826110b2916004016103ad565b9160443591606435916084356001600160401b03811161030557816110d9916004016103ad565b9160a4359160c435916110ec60e4610423565b9161010435906001600160401b038211610305576104ba916004016103ad565b346103055761111a3661107c565b9097936001600160a01b03859794969716805f52600360205260405f20885f5260205260ff60405f205416610783576001600160a01b0361116e6111618761059f8d6123ff565b546001600160a01b031690565b16036112dc5761055a6111849188868b8961386f565b61072a57600497856112c9575b5050506111ae60026111a68361059f896123ff565b015483613761565b6111ce6111be8261059f886123ff565b80546001600160a01b0319169055565b60206111e86105d66105d66007546001600160a01b031690565b6040516309a69f5760e01b815297889182905afa9586156107255761128786610b2461128161127a6002611252886112616106f49f6106e79f9d61063961059f9f926106d09e61063e9461128f9f5f93611294575b5089611252610b249361059f611259946123ff565b01546124a5565b61031c900490565b61059f836112728361059f8b6123ff565b0154976123ff565b60c7900490565b60021c90565b600d54612acf565b600d55565b611259919350611252610b249361059f6112bd8e9460203d60201161071e576107108183610351565b9694505093505061123d565b6112d4928686613604565b5f8080611191565b630504ed8560e21b5f5260045ffd5b3461030557610100366003190112610305576113056102ef565b604435906064356001600160401b038111610305576113289036906004016103ad565b60a435608435611336610408565b9260e435956001600160401b0387116103055761135a6106f49736906004016103ad565b9560243590612adc565b34610305576020600261093f8261086336610791565b34610305575f3660031901126103055760206001600160a01b03600a5416604051908152f35b346103055760206113b86113b336610791565b612d2e565b6040519015158152f35b346103055760206109216113d536610791565b612da9565b34610305575f366003190112610305576001600160a01b03600a541633036108fa575f6005819055600655005b346103055760206113b861141a36610791565b612f92565b34610305575f366003190112610305576001600160a01b03600a541633036108fa57600b80546001600160a01b03191690555f600c55005b34610305576114653661107c565b91929795936001600160a01b03604098969851602081611485818b6123b4565b5f81520301902054166001600160a01b038816809103610774575f52600360205260405f20885f5260205260ff60405f2054166107835761055a6114cc918987898b61397c565b61072a578360026114dc876123c6565b01541115611687576114f192886105706126a8565b8060026114fd846123c6565b0154036115f5576106e792600261152a846115256105ac61059f9661059f6115359b996123e2565b6123c6565b01610ab281546130e8565b61154d6105d66105d66007546001600160a01b031690565b604051630a1ad2d160e21b8152336004820152909190602081602481865afa908115610725575f916115d6575b5061158157005b6020600492604051938480926309a69f5760e01b82525afa9081156107255761063961063e926106f4945f916115b7575061247e565b6115d0915060203d60201161071e576107108183610351565b5f610620565b6115ef915060203d602011610b8757610b798183610351565b5f61157a565b93919290935b6002611606866123c6565b015481101561164e57600190611648611636611621886123e2565b61162a846125df565b5f5260205260405f2090565b6116438361059f8a6123e2565b613008565b016115fb565b5061059f61153593600261152a6106e795976115256105ac61166f836123e2565b85611679856123c6565b01545f5260205260405f2090565b630eda9c3d60e31b5f5260045ffd5b34610305576116a43661107c565b9192936001600160a01b0360409998979699516020816116c4818c6123b4565b5f81520301902054166001600160a01b038916809103610774575f52600360205260405f20895f5260205260ff60405f205416610783576001600160a01b036117136111618861059f8b6123ff565b16158015611922575b6119135761055a611730918a888a8c6139ca565b61072a5783611900575b505050611757600261174f8461059f876123ff565b015485613761565b61179061176a6111618461059f876123ff565b611773856123c6565b906001600160a01b03166001600160601b0360a01b825416179055565b6117a06111be8361059f866123ff565b6117b86105d66105d66007546001600160a01b031690565b604051630a1ad2d160e21b8152336004820152602081602481855afa908115610725575f916118e1575b5061181e575b506106f46106e78661059f876106d061128f6112878a610b2461128161127a60026112528f61059f836112728361059f8b6123ff565b91602060049694959293604051978880926309a69f5760e01b82525afa9586156107255761128786610b2461128161127a6002611252886118946106f49f6106e79f9d61063961059f9f926106d09e61063e9461128f9f5f936118a8575b5061127a8a611252610b249461059f611281956123ff565b9a50505050505095975050508194506117e8565b6112819193508a611252610b249461059f6118d461127a9560203d60201161071e576107108183610351565b979550509450505061187c565b6118fa915060203d602011610b8757610b798183610351565b5f6117e2565b61190b928488613604565b5f808061173a565b6351a658eb60e01b5f5260045ffd5b5060016119328761059f8a6123ff565b0154421161171c565b34610305576020366003190112610305576119546102ef565b6001600160a01b03600a541633036108fa576001600160a01b03168015610305576001600160601b0360a01b60085416176008556201518042018042116108eb57600955005b34610305576040366003190112610305576119b36102ef565b6001600160a01b0360243591165f52600360205260405f20905f52602052602060ff60405f2054166040519015158152f35b34610305576119f33661107c565b919296956001600160a01b03899695991698895f52600360205260405f20865f5260205260ff60405f20541661078357896001600160a01b03611a3e600a546001600160a01b031690565b1603611c8c575b611a5161055a896134bd565b611c7d5761055a611a659187848b8b613aff565b61072a57611a855f93611a8b93611aaa968b611a7f6131d6565b8b6136c4565b8661323d565b60405180938192639201de5560e01b8352600483019190602083019252565b038173__$2158dec17d05c1882e99bc1bb37b0eceb8$__5af4801561072557611ada915f91611c5b575b50612cfe565b94611aea6105d6611161886123c6565b14801590611c46575b611c375761059f6106e7926106d0611b439561067d611b11426125ce565b91611b1a610372565b6001600160a01b03861681529260208401525f60408401525f60608401525f60808401526123c6565b611b5b6105d66105d66007546001600160a01b031690565b604051630a1ad2d160e21b8152336004820152602081602481855afa908115610725575f91611c18575b50611bb4575b6106f4611b97846123c6565b60045f918281558260018201558260028201558260038201550155565b916020600493604051948580926309a69f5760e01b82525afa9283156107255761063e611b97936106396106f496611bf3945f91611bf9575b506124b6565b91611b8b565b611c12915060203d60201161071e576107108183610351565b5f611bed565b611c31915060203d602011610b8757610b798183610351565b5f611b85565b6321efd8cf60e11b5f5260045ffd5b506001611c52866123c6565b01544210611af3565b611c7791503d805f833e611c6f8183610351565b810190612c9c565b5f611ad4565b633efbb39b60e11b5f5260045ffd5b611c9588613a36565b611a45565b34610305576020366003190112610305576004356001600160a01b03600a541633036108fa57611cd86105d66105d66007546001600160a01b031690565b60405163d4fac45d60e01b81523060048201526001602482015290602082604481845afa918215610725575f92611d99575b506020600491604051928380926309a69f5760e01b82525afa91821561072557611d4c611d438594611d52945f91611d7a575b506125ed565b600d549061261c565b90612acf565b108015611d72575b610305576005556106f4611d6d426125fd565b600655565b508015611d5a565b611d93915060203d60201161071e576107108183610351565b5f611d3d565b6004919250611db6602091823d841161071e576107108183610351565b929150611d0a565b805180835260209291819084018484015e5f828201840152601f01601f1916010190565b602081016020825282518091526040820191602060408360051b8301019401925f915b838310611e1457505050505090565b9091929394602080611e32600193603f198682030187528951611dbe565b97019301930191939290611e05565b3461030557611e4f36610791565b6002604051602081611e6181866123b4565b5f815203019020015490611e74826130f4565b91611e826040519384610351565b808352611e91601f19916130f4565b015f5b818110611ef55750505f5b6002611eaa836123c6565b0154811015611ee75780611ecb611ec660019361059f866123e2565b613138565b611ed5828661311f565b52611ee0818561311f565b5001611e9f565b60405180610eab8582611de2565b806060602080938701015201611e94565b34610305575f366003190112610305576001600160a01b03600a54168033036108fa57600654421061030557600554611f3e91613761565b5f6005819055600655005b34610305575f3660031901126103055760206109216131d6565b34610305576020610921611f7636610dd4565b9061323d565b34610305576040611f8c36610791565b6001611fbe60206001600160a01b0385518281611fa981896123b4565b5f8152030190205416938551928380926123b4565b5f815203019020015482519182526020820152f35b34610305575f36600319011261030557604060055460065482519182526020820152f35b60206040818301928281528451809452019201905f5b81811061201a5750505090565b909192602060608261204c6001948851604080916001600160a01b038151168452602081015160208501520151910152565b01940192910161200d565b346103055761206536610791565b600360405160208161207781866123b4565b5f81520301902001549061208a826130f4565b916120986040519384610351565b8083526120a7601f19916130f4565b015f5b81811061210b5750505f5b60036120c0836123c6565b01548110156120fd57806120e16120dc60019361059f866123ff565b612728565b6120eb828661311f565b526120f6818561311f565b50016120b5565b60405180610eab8582611ff7565b60209061211661270a565b828287010152016120aa565b34610305576101403660031901126103055761213c6102ef565b6024356001600160401b0381116103055761215b9036906004016103ad565b906044359060643560843560a4356001600160401b038111610305576121859036906004016103ad565b60c4359060e43592612195610415565b9461012435976001600160401b03891161030557610eab996121be6121c49a36906004016103ad565b98613269565b6040519081529081906020820190565b34610305575f366003190112610305576001600160a01b03600b541633810361030557600c544210610305576001600160a01b03905f6040805161221781610331565b8381528260208201520152166001600160601b0360a01b600a541617600a556122585f6001600160a01b03166001600160601b0360a01b600b541617600b55565b5f600c55005b346103055760206113b861227136610791565b6134bd565b9060206104ba928181520190611dbe565b346103055761229f61229836610dd4565b91906123e2565b905f5260205260405f20604051905f908054906122bb8261241c565b808552916001811690811561232f57506001146122ef575b610eab846122e381860382610351565b60405191829182612276565b5f90815260208120939250905b808210612315575090915081016020016122e3826122d3565b9192600181602092548385880101520191019092916122fc565b60ff191660208087019190915292151560051b850190920192506122e391508390506122d3565b346103055761236436610791565b5f9060015b1561237f575b6123795f92612a0b565b91612369565b60405160208161238f81856123b4565b6001815203019020825f52602052600160405f20015461236f57602082604051908152f35b805191908290602001825e015f815290565b60206123d891604051928380926123b4565b5f81520301902090565b60206123f491604051928380926123b4565b600281520301902090565b602061241191604051928380926123b4565b600181520301902090565b90600182811c9216801561244a575b602083101461243657565b634e487b7160e01b5f52602260045260245ffd5b91607f169161242b565b81811061245f575050565b5f8155600101612454565b634e487b7160e01b5f52601160045260245ffd5b90816005029160058304036108eb57565b906032820291808304603214901517156108eb57565b90811560018380041417156108eb57565b90816032029160328304036108eb57565b9081600a0291600a8304036108eb57565b90816207a12002916207a1208304036108eb57565b906005820291808304600514901517156108eb57565b906103e38202918083046103e314901517156108eb57565b90607d820291808304607d14901517156108eb57565b818102929181159184041417156108eb57565b61254e815461241c565b9081612558575050565b81601f5f9311600114612569575055565b8183526020832061258591601f0160051c810190600101612454565b808252602082209081548360011b9084198560031b1c191617905555565b90816020910312610305575190565b6040513d5f823e3d90fd5b9063bbf81e0082018092116108eb57565b906301e2850082018092116108eb57565b90600182018092116108eb57565b6113db0190816113db116108eb57565b906201518082018092116108eb57565b9061070882018092116108eb57565b919082018092116108eb57565b60049060206001600160a01b0360075416604051938480926309a69f5760e01b82525afa9182156107255761063161266e6104ba946002935f91612674575b506124c7565b926123c6565b61268d915060203d60201161071e576107108183610351565b5f612668565b9081602091031261030557516104ba816103f1565b600460206001600160a01b0360075416604051928380926309a69f5760e01b82525afa908115610725575f916126eb575b5080600a0290600a8204036108eb5790565b612704915060203d60201161071e576107108183610351565b5f6126d9565b6040519061271782610331565b5f6040838281528260208201520152565b9060405161273581610331565b6040600282946001600160a01b038154168452600181015460208501520154910152565b95929690979194936001600160a01b0361277b60208b604051928380926123b4565b5f81520301902054166001600160a01b038816809103610774575f52600360205260405f20885f5260205260ff60405f20541661078357855115610dc55761055a876127d5926105558c8a6127cf8e613bdb565b91613832565b61072a576127e692846105706126a8565b6127fe6105d66105d66007546001600160a01b031690565b604051630a1ad2d160e21b8152336004820152602081602481855afa908115610725575f916128de575b5061286b575b50506106e7929160026128608661152561059f9561285b6128516103819b6123e2565b86611679866123c6565b612940565b01610ab28154612a0b565b602060049160409695939651928380926309a69f5760e01b82525afa908115610725576103819661152561059f956128cf61063e6106e79a6106396128bc600299612860995f916115b7575061247e565b610b24610b1d6128ca6126a8565b61248f565b9550509650508193945061282e565b6128f7915060203d602011610b8757610b798183610351565b5f612828565b9190601f811161290c57505050565b610381925f5260205f20906020601f840160051c83019310612936575b601f0160051c0190612454565b9091508190612929565b91909182516001600160401b03811161034c5761296781612961845461241c565b846128fd565b6020601f82116001146129a65781906129979394955f9261299b575b50508160011b915f199060031b1c19161790565b9055565b015190505f80612983565b601f198216906129b9845f5260205f2090565b915f5b8181106129f3575095836001959697106129db575b505050811b019055565b01515f1960f88460031b161c191690555f80806129d1565b9192602060018192868b0151815501940192016129bc565b5f1981146108eb5760010190565b612a316105d66105d66007546001600160a01b031690565b6040516309a69f5760e01b8152602081600481855afa801561072557600493600261063161266e612a6b946020965f91612ab857506124c7565b91604051938480926309a69f5760e01b82525afa908115610725576104ba925f92612a97575b5061261c565b612ab191925060203d60201161071e576107108183610351565b905f612a91565b61268d9150873d891161071e576107108183610351565b919082039182116108eb57565b95929694909193966001600160a01b0387165f52600360205260405f20855f5260205260ff60405f2054166107835761055a612b1a9186858a6138d1565b61072a57612b4c945f9388612c89575b50505060405180948192639201de5560e01b8352600483019190602083019252565b038173__$2158dec17d05c1882e99bc1bb37b0eceb8$__5af491821561072557612bcd936106d0612b8a6106e79561059f945f91611c5b5750612cfe565b61067d612b964261260d565b91612b9f610372565b6001600160a01b03861681529260208401525f604084018190526060840152600160f81b60808401526123c6565b612be56105d66105d66007546001600160a01b031690565b604051630a1ad2d160e21b8152336004820152602081602481855afa908115610725575f91612c6a575b50612c18575050565b6020600491604051928380926309a69f5760e01b82525afa918215610725576103819261063e925f91612c4b575061261c565b612c64915060203d60201161071e576107108183610351565b5f612a91565b612c83915060203d602011610b8757610b798183610351565b5f612c0f565b612c94928989613604565b5f8080612b2a565b602081830312610305578051906001600160401b038211610305570181601f8201121561030557805190612ccf82610392565b92612cdd6040519485610351565b8284526020838301011161030557815f9260208093018386015e8301015290565b90610381612d2092604051938491600160fe1b602084015260218301906123b4565b03601f198101845283610351565b600160f81b6001600160f81b0319612d4a6004610765856123c6565b1603612d94576001600160a01b03612d64611161836123c6565b1615908115612d7d575b5015612d78575f90565b600190565b60019150612d8a906123c6565b015415155f612d6e565b612d9f6001916123c6565b0154612d78575f90565b5f906001612db6826123c6565b01544211612f2a576001612dd9612dcc836123ff565b5f805260205260405f2090565b0154612e8c575b5080612df45750681b1ae4d6e2ef50000090565b60046020612e106105d66105d66007546001600160a01b031690565b6040516309a69f5760e01b815292839182905afa908115610725575f91612e6d575b50612e47612e3f836124ed565b6103e8900490565b612e50826124d8565b1015612e60576104ba91506124d8565b50612e3f6104ba916124ed565b612e86915060203d60201161071e576107108183610351565b5f612e32565b91905f5b6003612e9b856123c6565b0154811015612f2057426001612eb48361059f886123ff565b01541180612eff575b612eca575b600101612e90565b816002612eda8361059f886123ff565b01541115612ec257905060016002612ef58361059f876123ff565b0154919050612ec2565b506001600160a01b03612f186111618361059f886123ff565b161515612ebd565b509091505f612de0565b505060046020612f486105d66105d66007546001600160a01b031690565b6040516309a69f5760e01b815292839182905afa8015610725576104ba915f91612f73575b506124d8565b612f8c915060203d60201161071e576107108183610351565b5f612f6d565b600160f81b6001600160f81b0319612fae6004610765856123c6565b1603612ff3576001600160a01b03612fc8611161836123c6565b1615908115612fdc575b5015612d78575f80fd5b60019150612fe9906123c6565b015415155f612fd2565b612ffe6001916123c6565b0154612d78575f80fd5b9190918281146130e35761301c835461241c565b6001600160401b03811161034c5761303881612961845461241c565b5f93601f82116001146130725761299792939482915f926130675750508160011b915f199060031b1c19161790565b015490505f80612983565b613084601f198316915f5260205f2090565b94613092845f5260205f2090565b915f5b8181106130cb575095836001959697106130b357505050811b019055565b01545f1960f88460031b161c191690555f80806129d1565b9192600180602092868b015481550194019201613095565b509050565b80156108eb575f190190565b6001600160401b03811161034c5760051b60200190565b634e487b7160e01b5f52603260045260245ffd5b80518210156131335760209160051b010190565b61310b565b9060405191825f82549261314b8461241c565b80845293600181169081156131b45750600114613170575b5061038192500383610351565b90505f9291925260205f20905f915b818310613198575050906020610381928201015f613163565b602091935080600191548385890101520191019091849261317f565b90506020925061038194915060ff191682840152151560051b8201015f613163565b600460206001600160a01b0360075416604051928380926309a69f5760e01b82525afa908115610725575f9161321e575b506064810290808204606414901517156108eb5790565b613237915060203d60201161071e576107108183610351565b5f613207565b906132636020604051809361325583830180976123b4565b908152038084520182610351565b51902090565b93959691999798909294986001600160a01b0385165f52600360205260405f20875f5260205260ff60405f205416610783575f99600160f81b6001600160f81b03196132b96004610765896123c6565b161480156134ab575b80156134a3575b8015613499575b611c375761055a6132e59189898f898b613b4d565b61072a576132f8928887879c969c6136c4565b61330b6105d66111618361059f8b6123ff565b1561331e5761331990612a0b565b6132f8565b9561339360049698613332612e3f86612503565b61333a610383565b6001600160a01b0386168152916020830152604082015261335e8961059f856123ff565b815181546001600160a01b0319166001600160a01b039190911617815590600290604090602081015160018501550151910155565b60206133ad6105d66105d66007546001600160a01b031690565b6040516309a69f5760e01b815297889182905afa9586156107255761128f61341c61059f9561340461063e6106e79a6106396104ba9d613424985f9161347a575b50610b246133fb8761251b565b620186a0900490565b610b24613413612e3f83612503565b91610320900490565b600d5461261c565b600361342f826123c6565b0154871115613443576128606003916123c6565b600361344e826123c6565b01541561345c575b506106d0565b6134676003916123c6565b016134728154612a0b565b90555f613456565b613493915060203d60201161071e576107108183610351565b5f6133ee565b50428c11156132d0565b5086156132c9565b506134b861055a86612d2e565b6132c2565b60016040516020816134cf81866123b4565b5f81520301902001546134e25750600190565b6134f66020600192604051928380926123b4565b5f8152030190200154624f1a0081018091116108eb57421190565b61038190612d2061354a9493600160405196879467181a1a1b1c9ab1b160c11b6020870152600b60fa1b602887015260298601906123b4565b600b60fa1b815201906123b4565b9293610120946001600160a01b038094816104ba9a999516875216602086015261010060408601525f61010086015260016060860152608085015260a08401521660c08201528160e08201520190611dbe565b936001600160a01b0393846104ba99989481610140999516885216602087015261012060408701525f61012087015260016060870152608086015260a085015260c08401521660e0820152816101008201520190611dbe565b9190925f1461367a576136256105d66105d66007546001600160a01b031690565b90813b15610305575f80946136556040519788968795869463f4e1895b60e01b86528630933090600489016135ab565b03925af18015610725576136665750565b806136745f61038193610351565b80610817565b50916136946105d66105d66007546001600160a01b031690565b803b1561030557613655935f8094604051968795869485936327d50fd160e11b8552853092309060048801613558565b949190935f14613716576136e66105d66105d66007546001600160a01b031690565b91823b15610305575f9461365586926040519889978896879563f4e1895b60e01b875230933090600489016135ab565b909391506137326105d66105d66007546001600160a01b031690565b90813b15610305575f8094613655604051978896879586946327d50fd160e11b86523092309060048801613558565b6001600160a01b036007541690813b156103055760646001600160a01b03915f8094604051968795869463c898a6e960e01b86521660048501526001602485015260448401525af18015610725576137b65750565b5f61038191610351565b61038190612d2061354a9493600160405196879467333537323365323360c01b6020870152600b60fa1b602887015260298601906123b4565b61038190612d2061354a94936001604051968794670cd8d84d0d194d4d60c21b6020870152600b60fa1b602887015260298601906123b4565b612d2061354a9493600161354a6103819582604051998a97671a31b332981918b360c11b60208a0152600b60fa1b60288a015260298901906123b4565b9261354a916138c361055592600161354a6138966138906104ba9b99613bdb565b93613bdb565b9282604051988997670d4dcd8c590e195960c21b60208a0152600b60fa1b60288a015260298901906123b4565b03601f198101835282610351565b9192909260405193639201de5560e01b855260048501525f8460248173__$2158dec17d05c1882e99bc1bb37b0eceb8$__5af4938415610725576104ba9461354a92610555925f92613958575b5061392b6138c391613bdb565b600160405195869467356432333261353560c01b6020870152600b60fa1b602887015260298601906123b4565b6138c391925061397461392b913d805f833e611c6f8183610351565b92915061391e565b9261354a916138c361055592600161354a61399d6138906104ba9b99613bdb565b928260405198899767386164663339323760c01b60208a0152600b60fa1b60288a015260298901906123b4565b9261354a916138c361055592600161354a6139eb6138906104ba9b99613bdb565b928260405198899767386533626465343360c01b60208a0152600b60fa1b60288a015260298901906123b4565b8051156131335760200190565b908151811015613133570160200190565b6004815110613ae857613a6461055a613a5f613a5184613a18565b516001600160f81b03191690565b613e7b565b613ad1575f5b8151811015613acd57613a8b61055a613a86613a518486613a25565b613ec8565b80613ab4575b613a9d57600101613a6a565b6316c24c5560e31b5f52600360f81b60045260245ffd5b50613ac861055a613a5f613a518486613a25565b613a91565b5050565b6316c24c5560e31b5f52600160f91b60045260245ffd5b6316c24c5560e31b5f52600160f81b60045260245ffd5b9261354a916138c361055592600161354a613b206138906104ba9b99613bdb565b92826040519889976730b330b1319c323160c11b60208a0152600b60fa1b60288a015260298901906123b4565b93906138c36104ba9694600161354a610555958261354a613b7c613890613b7661354a9c613bdb565b97613bdb565b95826040519b8c9a67321c19329ab21c3160c11b60208d0152600b60fa1b60288d015260298c01906123b4565b90613bb382610392565b613bc06040519182610351565b8281528092613bd1601f1991610392565b0190602036910137565b805f9172184f03e93ff9f4daa797ed6e38ed64bf6a1f0160401b821015613d0e575b806d04ee2d6d415b85acef8100000000600a921015613cf2575b662386f26fc10000811015613cdd575b6305f5e100811015613ccb575b612710811015613cbb575b6064811015613cac575b1015613ca1575b613c8c6021613c6160018501613ba9565b938401015b5f1901916f181899199a1a9b1b9c1cb0b131b232b360811b600a82061a8353600a900490565b8015613c9c57613c8c9091613c66565b505090565b600190910190613c50565b60029060649004930192613c49565b6004906127109004930192613c3f565b6008906305f5e1009004930192613c34565b601090662386f26fc100009004930192613c27565b6020906d04ee2d6d415b85acef81000000009004930192613c17565b506040915072184f03e93ff9f4daa797ed6e38ed64bf6a1f0160401b8104613bfd565b6138c3613d83613d418351613bdb565b92604051928391613d7d60208401967f19457468657265756d205369676e6564204d6573736167653a0a0000000000008852603a8501906123b4565b906123b4565b5190206041825103613e3657815f916020809401519160606040820151910151841a92601b8410613e1f575b90613df391613dcd60ff8616601b8114908115613e14575b50613efe565b604051948594859094939260ff6060936080840197845216602083015260408201520152565b838052039060015afa15610725576001600160a01b03805f51921691161490565b601c9150145f613dc7565b9290613e2d613df392613eec565b93909150613daf565b60405162461bcd60e51b815260206004820152601860248201527f496e76616c6964207369676e6174757265206c656e67746800000000000000006044820152606490fd5b60ff60f81b16604160f81b8110159081613eb9575b8115613e9a575090565b606160f81b811015915081613ead575090565b603d60f91b1015905090565b602d60f91b8111159150613e90565b60ff60f81b16600360fc1b8110159081613ee0575090565b603960f81b1015919050565b60ff601b9116019060ff82116108eb57565b15613f0557565b60405162461bcd60e51b815260206004820152601760248201527f496e76616c6964207369676e61747572652076616c75650000000000000000006044820152606490fdfea26469706673582212204337dda2714db574cfd2baf1b483920e9995ebede110ccc9408b601154cf32e164736f6c634300081c0033","linkReferences":{"src/lib/AdvancedStrings.sol":{"AdvancedStrings":[{"start":7008,"length":20},{"start":11266,"length":20},{"start":14753,"length":20}]}}},"methodIdentifiers":{"acceptChangeEvvmAddress()":"48ffba55","acceptOffer(address,string,uint256,uint256,bytes,uint256,uint256,bool,bytes)":"8e3bde43","acceptProposeAdmin()":"eba5e53e","addCustomMetadata(address,string,string,uint256,bytes,uint256,uint256,bool,bytes)":"4cfe021f","cancelChangeEvvmAddress()":"24866f15","cancelProposeAdmin()":"88ecb91f","cancelWithdrawMateTokens()":"81bb2df3","checkIfNameServiceNonceIsAvailable(address,uint256)":"a9e6f37f","claimWithdrawMateTokens()":"b2bc0ed6","flushCustomMetadata(address,string,uint256,bytes,uint256,uint256,bool,bytes)":"3ca44e54","flushUsername(address,string,uint256,bytes,uint256,uint256,bool,bytes)":"044695cb","getAdmin()":"6e9960c3","getAdminFullDetails()":"5548a762","getAmountOfCustomMetadata(string)":"6b5bb1ca","getCustomMetadataMaxSlotsOfIdentity(string)":"7bd9da7a","getEvvmAddress()":"0d1ffe3a","getEvvmAddressFullDetails()":"49166379","getExpireDateOfIdentity(string)":"22afca38","getFullCustomMetadataOfIdentity(string)":"b19517dd","getIdentityBasicMetadata(string)":"c97da33e","getLengthOfOffersUsername(string)":"fe7ab683","getOffersOfUsername(string)":"d7fd3134","getOwnerOfIdentity(string)":"0d3dcb9f","getPricePerRegistration()":"b8086f98","getPriceToAddCustomMetadata()":"36e7a1b8","getPriceToFlushCustomMetadata(string)":"1f4131fb","getPriceToFlushUsername(string)":"54dc585d","getPriceToRemoveCustomMetadata()":"99e7bac2","getProposedWithdrawAmountFullDetails()":"d2234a1a","getSingleCustomMetadataOfIdentity(string,uint256)":"f6d0ecbe","getSingleOfferOfUsername(string,uint256)":"43a82d67","hashUsername(string,uint256)":"bcd5a47c","isUsernameAvailable(string)":"f69c6dec","makeOffer(address,string,uint256,uint256,uint256,bytes,uint256,uint256,bool,bytes)":"d82e5d8b","preRegistrationUsername(address,bytes32,uint256,bytes,uint256,uint256,bool,bytes)":"5d232a55","proposeAdmin(address)":"147bf6c4","proposeChangeEvvmAddress(address)":"a6ba51ca","proposeWithdrawMateTokens(uint256)":"b0d107da","registrationUsername(address,string,uint256,uint256,bytes,uint256,uint256,bool,bytes)":"afabc8db","removeCustomMetadata(address,string,uint256,uint256,bytes,uint256,uint256,bool,bytes)":"8adf3927","renewUsername(address,string,uint256,bytes,uint256,uint256,bool,bytes)":"35723e23","seePriceToRenew(string)":"75dab53b","strictVerifyIfIdentityExist(string)":"86c8ac58","verifyIfIdentityExists(string)":"7126b2a3","verifyStrictAndGetOwnerOfIdentity(string)":"0c78d2c6","withdrawOffer(address,string,uint256,uint256,bytes,uint256,uint256,bool,bytes)":"5761d8ed"},"id":25}