{"abi":[{"type":"constructor","inputs":[{"name":"initialAdmin","type":"address","internalType":"address"},{"name":"initialGoldenFisher","type":"address","internalType":"address"}],"stateMutability":"nonpayable"},{"type":"function","name":"_setupEstimatorAndEvvm","inputs":[{"name":"_estimator","type":"address","internalType":"address"},{"name":"_evvm","type":"address","internalType":"address"}],"outputs":[],"stateMutability":"nonpayable"},{"type":"function","name":"acceptNewAdmin","inputs":[],"outputs":[],"stateMutability":"nonpayable"},{"type":"function","name":"acceptNewEstimator","inputs":[],"outputs":[],"stateMutability":"nonpayable"},{"type":"function","name":"acceptNewGoldenFisher","inputs":[],"outputs":[],"stateMutability":"nonpayable"},{"type":"function","name":"acceptSetSecondsToUnlockStaking","inputs":[],"outputs":[],"stateMutability":"nonpayable"},{"type":"function","name":"addPresaleStaker","inputs":[{"name":"_staker","type":"address","internalType":"address"}],"outputs":[],"stateMutability":"nonpayable"},{"type":"function","name":"addPresaleStakers","inputs":[{"name":"_stakers","type":"address[]","internalType":"address[]"}],"outputs":[],"stateMutability":"nonpayable"},{"type":"function","name":"cancelChangeAllowPresaleStaking","inputs":[],"outputs":[],"stateMutability":"nonpayable"},{"type":"function","name":"cancelChangeAllowPublicStaking","inputs":[],"outputs":[],"stateMutability":"nonpayable"},{"type":"function","name":"cancelSetSecondsToUnllockFullUnstaking","inputs":[],"outputs":[],"stateMutability":"nonpayable"},{"type":"function","name":"checkIfStakeNonceUsed","inputs":[{"name":"_account","type":"address","internalType":"address"},{"name":"_nonce","type":"uint256","internalType":"uint256"}],"outputs":[{"name":"","type":"bool","internalType":"bool"}],"stateMutability":"view"},{"type":"function","name":"confirmChangeAllowPresaleStaking","inputs":[],"outputs":[],"stateMutability":"nonpayable"},{"type":"function","name":"confirmChangeAllowPublicStaking","inputs":[],"outputs":[],"stateMutability":"nonpayable"},{"type":"function","name":"confirmSetSecondsToUnllockFullUnstaking","inputs":[],"outputs":[],"stateMutability":"nonpayable"},{"type":"function","name":"getAddressHistory","inputs":[{"name":"_account","type":"address","internalType":"address"}],"outputs":[{"name":"","type":"tuple[]","internalType":"struct Staking.HistoryMetadata[]","components":[{"name":"transactionType","type":"bytes32","internalType":"bytes32"},{"name":"amount","type":"uint256","internalType":"uint256"},{"name":"timestamp","type":"uint256","internalType":"uint256"},{"name":"totalStaked","type":"uint256","internalType":"uint256"}]}],"stateMutability":"view"},{"type":"function","name":"getAddressHistoryByIndex","inputs":[{"name":"_account","type":"address","internalType":"address"},{"name":"_index","type":"uint256","internalType":"uint256"}],"outputs":[{"name":"","type":"tuple","internalType":"struct Staking.HistoryMetadata","components":[{"name":"transactionType","type":"bytes32","internalType":"bytes32"},{"name":"amount","type":"uint256","internalType":"uint256"},{"name":"timestamp","type":"uint256","internalType":"uint256"},{"name":"totalStaked","type":"uint256","internalType":"uint256"}]}],"stateMutability":"view"},{"type":"function","name":"getAllDataOfAllowPublicStaking","inputs":[],"outputs":[{"name":"","type":"tuple","internalType":"struct Staking.BoolTypeProposal","components":[{"name":"flag","type":"bool","internalType":"bool"},{"name":"timeToAccept","type":"uint256","internalType":"uint256"}]}],"stateMutability":"view"},{"type":"function","name":"getAllowPresaleStaking","inputs":[],"outputs":[{"name":"","type":"tuple","internalType":"struct Staking.BoolTypeProposal","components":[{"name":"flag","type":"bool","internalType":"bool"},{"name":"timeToAccept","type":"uint256","internalType":"uint256"}]}],"stateMutability":"view"},{"type":"function","name":"getEstimatorAddress","inputs":[],"outputs":[{"name":"","type":"address","internalType":"address"}],"stateMutability":"view"},{"type":"function","name":"getEstimatorProposal","inputs":[],"outputs":[{"name":"","type":"address","internalType":"address"}],"stateMutability":"view"},{"type":"function","name":"getEvvmAddress","inputs":[],"outputs":[{"name":"","type":"address","internalType":"address"}],"stateMutability":"view"},{"type":"function","name":"getGoldenFisher","inputs":[],"outputs":[{"name":"","type":"address","internalType":"address"}],"stateMutability":"view"},{"type":"function","name":"getGoldenFisherProposal","inputs":[],"outputs":[{"name":"","type":"address","internalType":"address"}],"stateMutability":"view"},{"type":"function","name":"getMateAddress","inputs":[],"outputs":[{"name":"","type":"address","internalType":"address"}],"stateMutability":"pure"},{"type":"function","name":"getOwner","inputs":[],"outputs":[{"name":"","type":"address","internalType":"address"}],"stateMutability":"view"},{"type":"function","name":"getPresaleStaker","inputs":[{"name":"_account","type":"address","internalType":"address"}],"outputs":[{"name":"","type":"bool","internalType":"bool"},{"name":"","type":"uint256","internalType":"uint256"}],"stateMutability":"view"},{"type":"function","name":"getPresaleStakerCount","inputs":[],"outputs":[{"name":"","type":"uint256","internalType":"uint256"}],"stateMutability":"view"},{"type":"function","name":"getSecondsToUnlockFullUnstaking","inputs":[],"outputs":[{"name":"","type":"uint256","internalType":"uint256"}],"stateMutability":"view"},{"type":"function","name":"getSecondsToUnlockStaking","inputs":[],"outputs":[{"name":"","type":"uint256","internalType":"uint256"}],"stateMutability":"view"},{"type":"function","name":"getSizeOfAddressHistory","inputs":[{"name":"_account","type":"address","internalType":"address"}],"outputs":[{"name":"","type":"uint256","internalType":"uint256"}],"stateMutability":"view"},{"type":"function","name":"getTimeToUserUnlockFullUnstakingTime","inputs":[{"name":"_account","type":"address","internalType":"address"}],"outputs":[{"name":"","type":"uint256","internalType":"uint256"}],"stateMutability":"view"},{"type":"function","name":"getTimeToUserUnlockStakingTime","inputs":[{"name":"_account","type":"address","internalType":"address"}],"outputs":[{"name":"","type":"uint256","internalType":"uint256"}],"stateMutability":"view"},{"type":"function","name":"getUserAmountStaked","inputs":[{"name":"_account","type":"address","internalType":"address"}],"outputs":[{"name":"","type":"uint256","internalType":"uint256"}],"stateMutability":"view"},{"type":"function","name":"gimmeYiel","inputs":[{"name":"user","type":"address","internalType":"address"}],"outputs":[{"name":"epochAnswer","type":"bytes32","internalType":"bytes32"},{"name":"tokenToBeRewarded","type":"address","internalType":"address"},{"name":"amountTotalToBeRewarded","type":"uint256","internalType":"uint256"},{"name":"idToOverwriteUserHistory","type":"uint256","internalType":"uint256"},{"name":"timestampToBeOverwritten","type":"uint256","internalType":"uint256"}],"stateMutability":"nonpayable"},{"type":"function","name":"goldenStaking","inputs":[{"name":"isStaking","type":"bool","internalType":"bool"},{"name":"amountOfStaking","type":"uint256","internalType":"uint256"},{"name":"signature_EVVM","type":"bytes","internalType":"bytes"}],"outputs":[],"stateMutability":"nonpayable"},{"type":"function","name":"prepareChangeAllowPresaleStaking","inputs":[],"outputs":[],"stateMutability":"nonpayable"},{"type":"function","name":"prepareChangeAllowPublicStaking","inputs":[],"outputs":[],"stateMutability":"nonpayable"},{"type":"function","name":"prepareSetSecondsToUnllockFullUnstaking","inputs":[{"name":"_secondsToUnllockFullUnstaking","type":"uint256","internalType":"uint256"}],"outputs":[],"stateMutability":"nonpayable"},{"type":"function","name":"presaleStaking","inputs":[{"name":"user","type":"address","internalType":"address"},{"name":"isStaking","type":"bool","internalType":"bool"},{"name":"nonce","type":"uint256","internalType":"uint256"},{"name":"signature","type":"bytes","internalType":"bytes"},{"name":"priorityFee_EVVM","type":"uint256","internalType":"uint256"},{"name":"nonce_EVVM","type":"uint256","internalType":"uint256"},{"name":"priorityFlag_EVVM","type":"bool","internalType":"bool"},{"name":"signature_EVVM","type":"bytes","internalType":"bytes"}],"outputs":[],"stateMutability":"nonpayable"},{"type":"function","name":"priceOfStaking","inputs":[],"outputs":[{"name":"","type":"uint256","internalType":"uint256"}],"stateMutability":"pure"},{"type":"function","name":"proposeAdmin","inputs":[{"name":"_newAdmin","type":"address","internalType":"address"}],"outputs":[],"stateMutability":"nonpayable"},{"type":"function","name":"proposeEstimator","inputs":[{"name":"_estimator","type":"address","internalType":"address"}],"outputs":[],"stateMutability":"nonpayable"},{"type":"function","name":"proposeGoldenFisher","inputs":[{"name":"_goldenFisher","type":"address","internalType":"address"}],"outputs":[],"stateMutability":"nonpayable"},{"type":"function","name":"proposeSetSecondsToUnlockStaking","inputs":[{"name":"_secondsToUnlockStaking","type":"uint256","internalType":"uint256"}],"outputs":[],"stateMutability":"nonpayable"},{"type":"function","name":"publicServiceStaking","inputs":[{"name":"user","type":"address","internalType":"address"},{"name":"service","type":"address","internalType":"address"},{"name":"isStaking","type":"bool","internalType":"bool"},{"name":"amountOfStaking","type":"uint256","internalType":"uint256"},{"name":"nonce","type":"uint256","internalType":"uint256"},{"name":"signature","type":"bytes","internalType":"bytes"},{"name":"priorityFee_EVVM","type":"uint256","internalType":"uint256"},{"name":"nonce_EVVM","type":"uint256","internalType":"uint256"},{"name":"priorityFlag_EVVM","type":"bool","internalType":"bool"},{"name":"signature_EVVM","type":"bytes","internalType":"bytes"}],"outputs":[],"stateMutability":"nonpayable"},{"type":"function","name":"publicStaking","inputs":[{"name":"user","type":"address","internalType":"address"},{"name":"isStaking","type":"bool","internalType":"bool"},{"name":"amountOfStaking","type":"uint256","internalType":"uint256"},{"name":"nonce","type":"uint256","internalType":"uint256"},{"name":"signature","type":"bytes","internalType":"bytes"},{"name":"priorityFee_EVVM","type":"uint256","internalType":"uint256"},{"name":"nonce_EVVM","type":"uint256","internalType":"uint256"},{"name":"priorityFlag_EVVM","type":"bool","internalType":"bool"},{"name":"signature_EVVM","type":"bytes","internalType":"bytes"}],"outputs":[],"stateMutability":"nonpayable"},{"type":"function","name":"rejectProposalAdmin","inputs":[],"outputs":[],"stateMutability":"nonpayable"},{"type":"function","name":"rejectProposalEstimator","inputs":[],"outputs":[],"stateMutability":"nonpayable"},{"type":"function","name":"rejectProposalGoldenFisher","inputs":[],"outputs":[],"stateMutability":"nonpayable"},{"type":"function","name":"rejectProposalSetSecondsToUnlockStaking","inputs":[],"outputs":[],"stateMutability":"nonpayable"},{"type":"error","name":"AddressIsNotAService","inputs":[]},{"type":"error","name":"InvalidSignatureOnStaking","inputs":[]},{"type":"error","name":"PresaleStakingDisabled","inputs":[]},{"type":"error","name":"PublicStakingDisabled","inputs":[]},{"type":"error","name":"SenderIsNotAdmin","inputs":[]},{"type":"error","name":"SenderIsNotGoldenFisher","inputs":[]},{"type":"error","name":"StakingNonceAlreadyUsed","inputs":[]},{"type":"error","name":"UserAndServiceMismatch","inputs":[]},{"type":"error","name":"UserIsNotPresaleStaker","inputs":[]},{"type":"error","name":"UserMustWaitToFullUnstake","inputs":[]},{"type":"error","name":"UserMustWaitToStakeAgain","inputs":[]},{"type":"error","name":"UserPresaleStakerLimitExceeded","inputs":[]}],"bytecode":{"object":"0x60803460b257601f612fff38819003918201601f19168301916001600160401b0383118484101760b657808492604094855283398101031260b257604b602060458360ca565b920160ca565b600280546001600160a01b039384166001600160a01b031991821617909155600580549290931691161790556013805460ff1990811690915560118054821690555f600b55621baf80600e55601580549091166001179055604051612f2190816100de8239f35b5f80fd5b634e487b7160e01b5f52604160045260245ffd5b51906001600160a01b038216820360b25756fe60806040526004361015610011575f80fd5b5f3560e01c80630d1ffe3a14610334578063147bf6c41461032f5780631e9c210f1461032a57806327be05571461032557806334dd90d6146103205780633900738a1461031b5780633d8ff69a14610316578063475c31ff14610311578063489c5ad41461030c578063602c4fb414610307578063610a0476146103025780636254300b146102fd57806366d161aa146102f8578063681f02ac146102f35780636b2933a2146102ee5780636c58f77b146102e95780636fa7ff17146102e45780637068dc65146102df5780637c25faef146102da5780637f8da591146102d5578063893d20e8146102d05780638f4b3f28146102cb5780639053a258146102c657806396ae4e45146102c15780639cde1d3e146102bc5780639e411233146102b7578063a06831ba146102b2578063a84e9f23146102ad578063b384c574146102a8578063b38c950a146102a3578063b996b6c41461029e578063be10034514610299578063c0f6e7d114610294578063c130a7191461028f578063c769095c1461028a578063cb0900b814610285578063cd6b546014610280578063d30f6d991461027b578063d5bbacd514610276578063dfa3340314610271578063dfb2b3a41461026c578063e2ccd47014610267578063e6cbd0a614610262578063e6f2ebe41461025d578063e7dc075614610258578063eb57af4a14610253578063f5c1af1c1461024e578063fa6215f314610249578063fabd08e8146102445763fc2feab21461023f575f80fd5b61157c565b6114e2565b611464565b611447565b6113f8565b6113a2565b611385565b61135f565b6112ca565b611296565b611219565b6111f2565b61119c565b611145565b611121565b611094565b611040565b610fb4565b610f57565b610f2f565b610ef7565b610eca565b610e92565b610e5a565b610e33565b610e04565b610de9565b610d74565b610d08565b610ce2565b610cbc565b610c8f565b610c67565b610c11565b610ba8565b610b6d565b610b0c565b610ae6565b610ac0565b610a83565b6107ee565b610791565b610689565b610536565b6104d9565b610483565b61044f565b6103ee565b61037d565b610347565b5f91031261034357565b5f80fd5b34610343575f3660031901126103435760206001600160a01b035f5416604051908152f35b6001600160a01b0381160361034357565b346103435760203660031901126103435760043561039a8161036c565b6001600160a01b036002541633036103df576001600160a01b03166001600160601b0360a01b60035416176003556201518042018042116103da57600455005b6115b8565b636587b01b60e11b5f5260045ffd5b34610343575f366003190112610343576001600160a01b036002541633036103df5760125442106103435761044960ff60115416155f6020604051610432816105b9565b838152015260ff8019601154169115151617601155565b5f601255005b34610343575f366003190112610343576001600160a01b036002541633036103df576201518042018042116103da57601455005b34610343575f366003190112610343576001600160a01b036002541633036103df5760075442106103435760068054600580546001600160a01b03199081166001600160a01b038416179091551690555f600755005b34610343576020366003190112610343576004356104f68161036c565b6001600160a01b036002541633036103df576001600160a01b03166001600160601b0360a01b60095416176009556201518042018042116103da57600a55005b34610343576020366003190112610343576004356001600160a01b036002541633036103df57600f556201518042018042116103da57601055005b8015150361034357565b60e4359061058882610571565b565b6044359061058882610571565b610104359061058882610571565b634e487b7160e01b5f52604160045260245ffd5b6040810190811067ffffffffffffffff8211176105d557604052565b6105a5565b6080810190811067ffffffffffffffff8211176105d557604052565b90601f8019910116810190811067ffffffffffffffff8211176105d557604052565b604051906105886080836105f6565b67ffffffffffffffff81116105d557601f01601f191660200190565b81601f820112156103435780359061065a82610627565b9261066860405194856105f6565b8284526020838301011161034357815f926020809301838601378301015290565b34610343576060366003190112610343576004356106a681610571565b60243560443567ffffffffffffffff8111610343576106c9903690600401610643565b906106dc6005546001600160a01b031690565b906001600160a01b0382163303610782576107106107046107045f546001600160a01b031690565b6001600160a01b031690565b604051630d9a602960e31b81523360048201529490602090869060249082905afa92831561077d5761074a955f9461074c575b50806120b3565b005b61076f91945060203d602011610776575b61076781836105f6565b810190611603565b925f610743565b503d61075d565b611612565b630d9974d560e11b5f5260045ffd5b34610343576020366003190112610343576004356107ae8161036c565b6001600160a01b036002541633036103df576001600160a01b03166001600160601b0360a01b60065416176006556201518042018042116103da57600755005b346103435760203660031901126103435760043561080b8161036c565b5f5f905f5f5f9161082d866001600160a01b03165f52601860205260405f2090565b5461086b575b604080519485526001600160a01b03909516602085015293830193909352606082019290925260808101919091528060a081015b0390f35b50505050506108886107046107046008546001600160a01b031690565b60405163f702720760e01b81526001600160a01b0383166004820152919060a090839060249082905f905af1801561077d575f925f925f925f925f91610a46575b50809280928587988098826108e7575b505050505050849392610833565b928261091d926108fe600297958461095f98611d35565b6109228561091d856001600160a01b03165f52601860205260405f2090565b611678565b505560016109458561091d856001600160a01b03165f52601860205260405f2090565b5001556001600160a01b03165f52601860205260405f2090565b5001556109796107046107045f546001600160a01b031690565b604051630a1ad2d160e21b8152336004820152909390602081602481885afa90811561077d575f91610a17575b506109b7575b9280808080806108d9565b6020600494604051958680926309a69f5760e01b82525afa801561077d576109ed6109f391610867965f916109f8575b506116a9565b33611cd7565b6109ac565b610a11915060203d6020116107765761076781836105f6565b5f6109e7565b610a39915060203d602011610a3f575b610a3181836105f6565b810190611691565b5f6109a6565b503d610a27565b935050935050610a6e915060a03d60a011610a7c575b610a6681836105f6565b81019061161d565b91939490929392915f6108c9565b503d610a5c565b34610343575f366003190112610343576001600160a01b036002541633036103df57600d54421061034357600c54600b555f600c555f600d555f80f35b34610343575f3660031901126103435760206001600160a01b0360065416604051908152f35b34610343575f3660031901126103435760206001600160a01b0360085416604051908152f35b34610343575f366003190112610343576001600160a01b036002541633036103df57601454421061034357610b6760ff60135416155f6020604051610b50816105b9565b838152015260ff8019601354169115151617601355565b5f601455005b34610343576020366003190112610343576004356001600160a01b036002541633036103df57600c556201518042018042116103da57600d55005b3461034357602036600319011261034357600435610bc58161036c565b6001600160a01b036002541633036103df5761032060015411610343576001600160a01b03165f52601760205260405f20600160ff19825416179055610c0c6001546116f3565b600155005b34610343575f366003190112610343576001600160a01b036002541633036103df57600a5442106103435760098054600880546001600160a01b03199081166001600160a01b038416179091551690555f600a55005b34610343575f366003190112610343576001600160a01b036002541633036103df575f601255005b34610343575f366003190112610343576001600160a01b036002541633036103df575f600c819055600d55005b34610343575f3660031901126103435760206001600160a01b0360055416604051908152f35b34610343575f3660031901126103435760206001600160a01b0360025416604051908152f35b34610343575f366003190112610343576001600160a01b036002541633036103df57601054421061034357600f54600e555f600f555f6010555f80f35b610588909291926080810193606080918051845260208101516020850152604081015160408501520151910152565b3461034357604036600319011261034357610867610ddd610dd7600435610d9a8161036c565b6001600160a01b03602435915f6060604051610db5816105da565b8281528260208201528260408201520152165f52601860205260405f20611678565b50611701565b60405191829182610d45565b34610343575f36600319011261034357602060405160018152f35b34610343576020366003190112610343576020610e2b600435610e268161036c565b61174e565b604051908152f35b34610343576020366003190112610343576020610e2b600435610e558161036c565b611799565b34610343575f366003190112610343576001600160a01b036002541633036103df57600980546001600160a01b03191690555f600a55005b34610343575f366003190112610343576001600160a01b036002541633036103df57600680546001600160a01b03191690555f600755005b34610343575f366003190112610343576001600160a01b036002541633036103df575f600f819055601055005b34610343575f366003190112610343576001600160a01b036002541633036103df57600380546001600160a01b03191690555f600455005b34610343575f366003190112610343576001600160a01b036002541633036103df575f601455005b346103435760203660031901126103435760043567ffffffffffffffff8111610343573660238201121561034357806004013567ffffffffffffffff8111610343573660248260051b8401011161034357602461074a9201611821565b346103435761010036600319011261034357600435610fd28161036c565b60243590610fdf82610571565b60443560643567ffffffffffffffff811161034357611002903690600401610643565b60843560a4359160c4359361101685610571565b60e4359667ffffffffffffffff88116103435761103a61074a983690600401610643565b96611898565b346103435760203660031901126103435760406001600160a01b036004356110678161036c565b16805f52601760205260ff825f205416905f5260176020526001825f200154825191151582526020820152f35b3461034357610120366003190112610343576004356110b28161036c565b602435906110bf82610571565b60443560643560843567ffffffffffffffff8111610343576110e5903690600401610643565b60a4359060c435926110f561057b565b94610104359767ffffffffffffffff89116103435761111b61074a993690600401610643565b97611a15565b34610343575f3660031901126103435760206040516901138ccba11c9e8c00008152f35b34610343575f366003190112610343576003546001600160a01b038116803314801590611191575b61034357600280546001600160a01b0319908116929092179055166003555f600455005b50600454421061116d565b34610343575f366003190112610343576111b4611adb565b506108676040516111c4816105b9565b60135460ff161515808252601454602092830190815260408051928352905192820192909252918291820190565b34610343576020366003190112610343576020610e2b6004356112148161036c565b611aff565b34610343576040366003190112610343576004356112368161036c565b602435906112438261036c565b6015549160f883901b6001600160f81b03191615610343576001600160a01b038092166001600160601b0360a01b6008541617600855166001600160601b0360a01b5f5416175f5560ff19166015555f80f35b34610343575f366003190112610343576001600160a01b036002541633036103df576201518042018042116103da57601255005b3461034357610140366003190112610343576004356112e88161036c565b602435906112f58261036c565b6112fd61058a565b60643560843560a43567ffffffffffffffff811161034357611323903690600401610643565b60c4359160e43593611333610597565b95610124359867ffffffffffffffff8a116103435761135961074a9a3690600401610643565b98611bcb565b34610343575f3660031901126103435760206001600160a01b0360095416604051908152f35b34610343575f366003190112610343576020600b54604051908152f35b34610343575f366003190112610343576113ba611adb565b506108676040516113ca816105b9565b60115460ff161515808252601254602092830190815260408051928352905192820192909252918291820190565b34610343576040366003190112610343576004356114158161036c565b6001600160a01b0360243591165f52601660205260405f20905f52602052602060ff60405f2054166040519015158152f35b34610343575f366003190112610343576020600e54604051908152f35b34610343575f366003190112610343576020600154604051908152f35b60206040818301928281528451809452019201905f5b8181106114a45750505090565b90919260206080826114d76001948851606080918051845260208101516020850152604081015160408501520151910152565b019401929101611497565b34610343576020366003190112610343576001600160a01b036004356115078161036c565b165f52601860205260405f20805467ffffffffffffffff81116105d5576040519161153860208360051b01846105f6565b81835260208301905f5260205f205f915b83831061155e57604051806108678782611481565b6004602060019261156e85611701565b815201920192019190611549565b34610343576020366003190112610343576001600160a01b036004356115a18161036c565b165f526018602052602060405f2054604051908152f35b634e487b7160e01b5f52601160045260245ffd5b90600c82018092116103da57565b60020190816002116103da57565b60030190816003116103da57565b919082018092116103da57565b90816020910312610343575190565b6040513d5f823e3d90fd5b908160a09103126103435780519160208201516116398161036c565b916040810151916080606083015192015190565b634e487b7160e01b5f52603260045260245ffd5b805415611673575f5260205f20905f90565b61164d565b8054821015611673575f5260205f209060021b01905f90565b9081602091031261034357516116a681610571565b90565b90811560018380041417156103da57565b908160011b91808304600214901517156103da57565b90816901138ccba11c9e8c000002916901138ccba11c9e8c00008304036103da57565b5f1981146103da5760010190565b9060405161170e816105da565b6060600382948054845260018101546020850152600281015460408501520154910152565b5f198101919082116103da57565b919082039182116103da57565b6001600160a01b0316805f52601860205260405f2054908115611793575f52601860205260405f205f1982019182116103da5760039161178d91611678565b50015490565b50505f90565b6001600160a01b03811690815f52601860205260405f205491821561181a575f52601860205260036117d760405f206117d185611733565b90611678565b500154611793576002916117d1611802611808936001600160a01b03165f52601860205260405f2090565b91611733565b500154600b5481018091116103da5790565b5050505f90565b916001600160a01b036002541633036103df575f5b828110156118925761032060015411610343576001906001600160a01b038160051b8601356118648161036c565b165f52601760205260405f208260ff1982541617905561188c61188783546116f3565b600155565b01611836565b50915050565b928361192f9198929396979861190e61192a6040516118b86040826105f6565b6008815267633066366537643160c01b602082015287156119fe5761191c8b600161190e6118e4611dad565b925b8261190e6118fc6118f683612949565b93612949565b95826040519b8c9a60208c0190611dcf565b600b60fa1b81520190611dcf565b03601f1981018352826105f6565b612a9f565b156119ef576001600160a01b0383165f52601660205261196461195d8660405f20905f5260205260405f2090565b5460ff1690565b6119e0576119728383611de1565b61198561198160115460ff1690565b1590565b6119d157610588966119c4966119b7956119a0948680612443565b6001600160a01b03165f52601660205260405f2090565b905f5260205260405f2090565b805460ff19166001179055565b63098e23b360e41b5f5260045ffd5b63eb59cbbd60e01b5f5260045ffd5b631aeb816b60e01b5f5260045ffd5b61191c8b600161190e611a0f611d8a565b926118e6565b93979194969092959760ff60135416156103435784611a809161190e61192a8a61191c8b600161190e60405194611a4d6040876105f6565b6008865267633736393039356360c01b60208701528d15611ac9578261190e6118fc6118f6611a7a611dad565b97612949565b156119ef576001600160a01b0384165f526016602052611aae61195d8760405f20905f5260205260405f2090565b6119e057610588976119c4976119b7966119a0958780612761565b8261190e6118fc6118f6611a7a611d8a565b60405190611ae8826105b9565b5f6020838281520152565b80156103da575f190190565b6001600160a01b0381165f52601860205260405f2054805b611b5057506002611b44611b3f6116a6936001600160a01b03165f52601860205260405f2090565b611661565b500154600e54906115f6565b6003611b79611b70846001600160a01b03165f52601860205260405f2090565b6117d184611733565b50015415611b9057611b8a90611af3565b80611b17565b611b446002916117d16118026116a6956001600160a01b03165f52601860205260405f2090565b60405190611bc66020836105f6565b5f8252565b9498919593969897909297611be561198160135460ff1690565b611cc857833b15611cb9578615611c8f57611981611c0791898b8a888b611f31565b6119ef575b611c2e61195d886119b7886001600160a01b03165f52601660205260405f2090565b6119e057610588986119c4986119b7976119a0968115611c8757925b8115611c7f57935b8115611c7757945b8115611c6857955b88612761565b50611c71611bb7565b95611c62565b505f94611c5a565b505f93611c52565b505f92611c4a565b506001600160a01b0385166001600160a01b0384160315611c0c57630538356f60e11b5f5260045ffd5b634a340e9d60e01b5f5260045ffd5b6333a374eb60e11b5f5260045ffd5b6001600160a01b035f541690813b156103435760646001600160a01b03915f8094604051968795869463c898a6e960e01b86521660048501526001602485015260448401525af1801561077d57611d2b5750565b5f610588916105f6565b916001600160a01b035f5416803b15610343575f92836064926001600160a01b039485604051988997889663c898a6e960e01b885216600487015216602485015260448401525af1801561077d57611d2b5750565b60405190611d996040836105f6565b600582526466616c736560d81b6020830152565b60405190611dbc6040836105f6565b60048252637472756560e01b6020830152565b805191908290602001825e015f815290565b60135460ff1615611dfb5763098e23b360e41b5f5260045ffd5b611e1961195d836001600160a01b03165f52601760205260405f2090565b15611ed15715611e855760026001611e42836001600160a01b03165f52601760205260405f2090565b01541015611e7657611e676001916001600160a01b03165f52601760205260405f2090565b01611e7281546116f3565b9055565b636b3af2e560e01b5f5260045ffd5b6001611ea2826001600160a01b03165f52601760205260405f2090565b015415611e7657611ec66001916001600160a01b03165f52601760205260405f2090565b01611e728154611af3565b63f706524f60e01b5f5260045ffd5b9061190e9493600161190e610588958261190e611f2396826040519c8d9a67065326363643437360c41b60208d0152600b60fa1b60288d015260298c0190611dcf565b03601f1981018452836105f6565b9391959492906001600160a01b031695611f49612be9565b96611f52612c17565b976030611f5e8a612c39565b536078611f6a8a612c46565b535f5b60148110611fb157505050916116a695969161192a935f14611fa357611f9d611f97611f97611dad565b92612949565b92611ee0565b611f9d611f97611f97611d8a565b611fba816115cc565b602081101561167357611fe890611fda9085901a60041c600f1684612c56565b516001600160f81b03191690565b612006611ffc611ff7846116ba565b6115da565b915f1a918c612c56565b53612010816115cc565b9060208210156116735761202e611fda600f866001951a1685612c56565b61204c61204261203d846116ba565b6115e8565b915f1a918d612c56565b5301611f6d565b8054680100000000000000008110156105d55761207591600182018155611678565b9190916120a05760608160039251845560208101516001850155604081015160028501550151910155565b634e487b7160e01b5f525f60045260245ffd5b919293949094835f146122fc576120c986611799565b42106122ed575f806120e4946120de886116d0565b90612df1565b6120fb6107046107045f546001600160a01b031690565b92833b156103435760405163adb6233f60e01b81526001600160a01b0382166004820152600160f81b6024820152935f908590604490829084905af193841561077d576121af946122d3575b50612163816001600160a01b03165f52601860205260405f2090565b5461227b57612185835b916001600160a01b03165f52601860205260405f2090565b9115612273576001925b612197610618565b93845260208401524260408401526060830152612053565b6121c66107046107045f546001600160a01b031690565b604051630a1ad2d160e21b8152336004820152602081602481855afa90811561077d575f91612254575b506121f85750565b6020600491604051928380926309a69f5760e01b82525afa90811561077d575f612230610588936109ed938391612235575b506116ba565b6115f6565b61224e915060203d6020116107765761076781836105f6565b5f61222a565b61226d915060203d602011610a3f57610a3181836105f6565b5f6121f0565b60029261218f565b6121856122ce8460036122c66122a2866001600160a01b03165f52601860205260405f2090565b6117d16122c0886001600160a01b03165f52601860205260405f2090565b54611733565b5001546115f6565b61216d565b806122e15f6122e7936105f6565b80610339565b5f612147565b631b59767160e01b5f5260045ffd5b9491906123088361174e565b85146123a9575b6121af956001600160a01b0384166001600160a01b03841614806123a2575b61238f575b50505061218561236584600361235d6122a2866001600160a01b03165f52601860205260405f2090565b500154611741565b91612378612372866116d0565b82611cd7565b6001600160a01b03165f52601860205260405f2090565b5f8061239a94612d37565b5f8080612333565b505f61232e565b6123b283611aff565b4210612434576123cf6107046107045f546001600160a01b031690565b95863b156103435760405163adb6233f60e01b81526001600160a01b03851660048201525f6024820181905290978890604490829084905af196871561077d576121af97612420575b50955061230f565b806122e15f61242e936105f6565b5f612418565b637cb4505d60e11b5f5260045ffd5b9295919490939085156126455761245985611799565b42106122ed578661246e946120de60016116d0565b6124856107046107045f546001600160a01b031690565b91823b156103435760405163adb6233f60e01b81526001600160a01b0383166004820152600160f81b6024820152925f908490604490829084905af192831561077d5761253c93612631575b506124ed826001600160a01b03165f52601860205260405f2090565b546125e65761251060015b926001600160a01b03165f52601860205260405f2090565b90156125de576001915b612522610618565b928352600160208401524260408401526060830152612053565b6125536107046107045f546001600160a01b031690565b604051630a1ad2d160e21b8152336004820152909190602081602481865afa90811561077d575f916125bf575b50612589575050565b6020600492604051938480926309a69f5760e01b82525afa90811561077d576122306109ed92610588945f9161223557506116ba565b6125d8915060203d602011610a3f57610a3181836105f6565b5f612580565b60029161251a565b61251061262c600160036122c661260e876001600160a01b03165f52601860205260405f2090565b6117d16122c0896001600160a01b03165f52601860205260405f2090565b6124f8565b806122e15f61263f936105f6565b5f6124d1565b949291906126528561174e565b6001146126d6575b61253c95876001600160a01b0387166001600160a01b03861614806126cd575b6126ba575b50505050506125106126ac6001600361235d61260e876001600160a01b03165f52601860205260405f2090565b9261237861237260016116d0565b6126c394612d37565b5f8080808761267f565b5080151561267a565b6126df85611aff565b4210612434576126fc6107046107045f546001600160a01b031690565b95863b156103435760405163adb6233f60e01b81526001600160a01b03871660048201525f6024820181905290978890604490829084905af196871561077d5761253c9761274d575b50955061265a565b806122e15f61275b936105f6565b5f612745565b9294909596919396845f1461280b5761277987611799565b42106122ed578761278d946120de886116d0565b6127a46107046107045f546001600160a01b031690565b92833b156103435760405163adb6233f60e01b81526001600160a01b0382166004820152600160f81b6024820152935f908590604490829084905af193841561077d5761253c946122d35750612163816001600160a01b03165f52601860205260405f2090565b959291906128188461174e565b861461288c575b61253c96886001600160a01b0386166001600160a01b0386161480612883575b612870575b505050505061218561236584600361235d6122a2866001600160a01b03165f52601860205260405f2090565b61287994612d37565b5f80808088612844565b5080151561283f565b61289584611aff565b4210612434576128b26107046107045f546001600160a01b031690565b96873b156103435760405163adb6233f60e01b81526001600160a01b03861660048201525f6024820181905290988990604490829084905af197881561077d5761253c98612903575b50965061281f565b806122e15f612911936105f6565b5f6128fb565b9061292182610627565b61292e60405191826105f6565b828152809261293f601f1991610627565b0190602036910137565b805f9172184f03e93ff9f4daa797ed6e38ed64bf6a1f0160401b821015612a7c575b806d04ee2d6d415b85acef8100000000600a921015612a60575b662386f26fc10000811015612a4b575b6305f5e100811015612a39575b612710811015612a29575b6064811015612a1a575b1015612a0f575b6129fa60216129cf60018501612917565b938401015b5f1901916f181899199a1a9b1b9c1cb0b131b232b360811b600a82061a8353600a900490565b8015612a0a576129fa90916129d4565b505090565b6001909101906129be565b600290606490049301926129b7565b60049061271090049301926129ad565b6008906305f5e10090049301926129a2565b601090662386f26fc100009004930192612995565b6020906d04ee2d6d415b85acef81000000009004930192612985565b506040915072184f03e93ff9f4daa797ed6e38ed64bf6a1f0160401b810461296b565b61191c612af1612aaf8351612949565b92604051928391612aeb60208401967f19457468657265756d205369676e6564204d6573736167653a0a0000000000008852603a850190611dcf565b90611dcf565b5190206041825103612ba457815f916020809401519160606040820151910151841a92601b8410612b8d575b90612b6191612b3b60ff8616601b8114908115612b82575b50612e9f565b604051948594859094939260ff6060936080840197845216602083015260408201520152565b838052039060015afa1561077d576001600160a01b03805f51921691161490565b601c9150145f612b35565b9290612b9b612b6192612e8d565b93909150612b1d565b60405162461bcd60e51b815260206004820152601860248201527f496e76616c6964207369676e6174757265206c656e67746800000000000000006044820152606490fd5b60405190612bf86040836105f6565b601082526f181899199a1a9b1b9c1cb0b131b232b360811b6020830152565b60405160609190612c2883826105f6565b602a815291601f1901366020840137565b8051156116735760200190565b8051600110156116735760210190565b908151811015611673570160200190565b805180835260209291819084018484015e5f828201840152601f01601f1916010190565b9293610120946001600160a01b038094816116a69a999516875216602086015261010060408601525f61010086015260016060860152608085015260a08401521660c08201528160e08201520190612c67565b936001600160a01b0393846116a699989481610140999516885216602087015261012060408701525f61012087015260016060870152608086015260a085015260c08401521660e0820152816101008201520190612c67565b93929115612da757612d566107046107045f546001600160a01b031690565b90813b15610343575f809491612d8882936040519889978896879563f4e1895b60e01b87523093309060048901612cde565b03925af1801561077d57612d995750565b806122e15f610588936105f6565b91929050612dc26107046107045f546001600160a01b031690565b803b15610343575f808094612d88604051978896879586946327d50fd160e11b86523092309060048801612c8b565b94919093925f14612e4357612e136107046107045f546001600160a01b031690565b91823b15610343575f94612d8886926040519889978896879563f4e1895b60e01b87523093309060048901612cde565b90939150612e5e6107046107045f546001600160a01b031690565b90813b15610343575f8094612d88604051978896879586946327d50fd160e11b86523092309060048801612c8b565b60ff601b9116019060ff82116103da57565b15612ea657565b60405162461bcd60e51b815260206004820152601760248201527f496e76616c6964207369676e61747572652076616c75650000000000000000006044820152606490fdfea2646970667358221220110206abd46a4666d8b5a0c26f52d514284dea5bbfd54de4298e3d9c816c24c764736f6c634300081c0033","linkReferences":{}},"methodIdentifiers":{"_setupEstimatorAndEvvm(address,address)":"dfa33403","acceptNewAdmin()":"cd6b5460","acceptNewEstimator()":"6fa7ff17","acceptNewGoldenFisher()":"34dd90d6","acceptSetSecondsToUnlockStaking()":"610a0476","addPresaleStaker(address)":"6c58f77b","addPresaleStakers(address[])":"be100345","cancelChangeAllowPresaleStaking()":"7068dc65","cancelChangeAllowPublicStaking()":"b996b6c4","cancelSetSecondsToUnllockFullUnstaking()":"b384c574","checkIfStakeNonceUsed(address,uint256)":"eb57af4a","confirmChangeAllowPresaleStaking()":"1e9c210f","confirmChangeAllowPublicStaking()":"681f02ac","confirmSetSecondsToUnllockFullUnstaking()":"8f4b3f28","getAddressHistory(address)":"fabd08e8","getAddressHistoryByIndex(address,uint256)":"9053a258","getAllDataOfAllowPublicStaking()":"d30f6d99","getAllowPresaleStaking()":"e7dc0756","getEstimatorAddress()":"66d161aa","getEstimatorProposal()":"e6cbd0a6","getEvvmAddress()":"0d1ffe3a","getGoldenFisher()":"7f8da591","getGoldenFisherProposal()":"6254300b","getMateAddress()":"96ae4e45","getOwner()":"893d20e8","getPresaleStaker(address)":"c130a719","getPresaleStakerCount()":"fa6215f3","getSecondsToUnlockFullUnstaking()":"f5c1af1c","getSecondsToUnlockStaking()":"e6f2ebe4","getSizeOfAddressHistory(address)":"fc2feab2","getTimeToUserUnlockFullUnstakingTime(address)":"d5bbacd5","getTimeToUserUnlockStakingTime(address)":"9e411233","getUserAmountStaked(address)":"9cde1d3e","gimmeYiel(address)":"602c4fb4","goldenStaking(bool,uint256,bytes)":"475c31ff","prepareChangeAllowPresaleStaking()":"dfb2b3a4","prepareChangeAllowPublicStaking()":"27be0557","prepareSetSecondsToUnllockFullUnstaking(uint256)":"3d8ff69a","presaleStaking(address,bool,uint256,bytes,uint256,uint256,bool,bytes)":"c0f6e7d1","priceOfStaking()":"cb0900b8","proposeAdmin(address)":"147bf6c4","proposeEstimator(address)":"3900738a","proposeGoldenFisher(address)":"489c5ad4","proposeSetSecondsToUnlockStaking(uint256)":"6b2933a2","publicServiceStaking(address,address,bool,uint256,uint256,bytes,uint256,uint256,bool,bytes)":"e2ccd470","publicStaking(address,bool,uint256,uint256,bytes,uint256,uint256,bool,bytes)":"c769095c","rejectProposalAdmin()":"b38c950a","rejectProposalEstimator()":"a06831ba","rejectProposalGoldenFisher()":"a84e9f23","rejectProposalSetSecondsToUnlockStaking()":"7c25faef"},"id":29}